:020000040800F2
:10000000D8090020010100088F180008C716000851
:100010008D180008F5010008751E0008000000009A
:10002000000000000000000000000000C51B0008E8
:10003000F701000800000000B1180008C71B000805
:100040001B0100081B0100081B010008F51900082E
:100050001B0100081B0100081B0100081B01000810
:100060001B0100081B0100081B0100081B01000800
:100070001B0100081B0100081B0100081B010008F0
:100080001B0100081B0100081B0100081B010008E0
:100090001B0100081B0100081B0100081B010008D0
:1000A0001B0100081B0100081B0100081B010008C0
:1000B0001B0100081B0100081B0100081B010008B0
:1000C0001B0100081B0100081B0100081B010008A0
:1000D0001B0100081B0100081B0100081B01000890
:1000E0001B0100081B0100081B010008DFF80CD0F1
:1000F00000F02AF8004800474D310008D8090020D8
:100100000648804706480047FEE7FEE7FEE7FEE7B1
:10011000FEE7FEE7FEE7FEE7FEE7FEE72D1C000830
:10012000ED000008D2B201E000F8012B491EFBD21D
:1001300070470022F6E710B513460A4604461946F2
:10014000FFF7F0FF204610BD064C074D06E0E068C3
:1001500040F0010394E8070098471034AC42F6D30E
:10016000FFF7C8FFFC3600081C37000870B50446CE
:1001700000688168C943C9071CD1816821F0010169
:10018000816000F08BFA05460FE000BF00F086FAB0
:10019000401B022809D9A06A40F01000A062E06A62
:1001A00040F00100E062012070BD20688068C0431B
:1001B000C007EBD0002070BD10B501211922084600
:1001C00001F05CFC0022BDE810401146104601F031
:1001D00067BC000010B501F0A5FA012203490448EC
:1001E00000F0A6FEBDE8104001F0E2BF00000020D4
:1001F0006C000020FEE77047002200F001B800000C
:1002000030B50E4B054601205C7A012C15D8587A82
:1002100000241C54587A03EB800045605D7A03F19A
:1002200008002A54587A421C5A72303008703A201A
:1002300048702F208870CC70002030BD70010020E5
:10024000F8B50024009490F824202546012A12D005
:10025000012280F824204A681F23072A0DD206684D
:10026000776B521E02EB820293409F430B689340D0
:100270001F43776319E00220F8BD06680D2A0AD2F1
:10028000376BD21F02EB820293409F430B6893406F
:100290001F43376309E0F76A0D3A02EB820293408D
:1002A0009F430B6893401F43F7620A680723066861
:1002B0000A2A0AD3F7680A3A02EB420293409F43A4
:1002C0008B6893401F43F76008E0376902EB4202F6
:1002D00093409F438B6893401F4337610A68102AFD
:1002E00001D0112A20D1124B02689A4217D193688B
:1002F0001B0219D4936843F4000393600968102922
:1003000012D10C490C4A0968B1FBF2F101EB8101F1
:10031000490000E0491E00910029FBD104E0816AF8
:1003200041F020018162012480F824502046F8BD6C
:10033000002401403000002040420F002DE9F04130
:100340004FF0000704003D467ED0A06A002628B981
:10035000E66284F82460204600F07EF82046FFF72D
:1003600005FFA16AC90600D420B1A06A40F01000C0
:10037000A06269E0A16A21F4885141F00201A16202
:100380006268E169E3680A4347EA43010A43A168F6
:100390004FF48077B94209D0012907D05FF00001FE
:1003A000D4F814C0BCF1010F02D00AE03946F7E7D7
:1003B000F3B1A36A43F02003A362E36A43F00103AD
:1003C000E3622368D3F804C02CF4694C4CEA010CB6
:1003D000C3F804C021688B68DFF870C003EA0C031F
:1003E00013438B60A168B9420BD0012909D00CE0FE
:1003F000DFF85CC0A3690CEB43330B4343F40061AB
:10040000DFE7218A0D05A5F580152168CB6A23F465
:1004100070032B43CB62216889680E4B19409142CF
:1004200008D1E662A16A21F0020141F00101A16256
:10043000BDE8F081A06A20F0020040F01000A06248
:10044000E06A40F00100E0620120F1E7FDF7E1FF22
:1004500000E0FFFFFE0E1FFF00B585B000210091F8
:1004600001910291039100680E49884218D10E480B
:10047000816941F400718161816901F40071049125
:10048000816941F0040181618069694600F00400DE
:1004900004903020009003200190044800F01AF8E6
:1004A00005B000BD002401400010024000080140DA
:1004B00070B5044600F0F2F80546601C02D004480E
:1004C0000078044400F0EAF8401BA042FAD370BD63
:1004D000240000202DE9F84FDFF890A100220AF156
:1004E000040B144601274FF00F090BF1040E00BF57
:1004F0000B6807FA04F52B40AB4274D1DFF870C1EA
:100500004E68A6EB0C0866452BD00DDC032E34D0CC
:1005100005DC36B3012E19D0022E2FD11BE0112E8F
:1005200016D0122E2AD119E0B8F5881F19D006DC92
:10053000B8F5803F15D0B8F5801F1FD111E0B8F590
:10054000001F0ED0B8F5041F18D10AE0CA6815E0E4
:10055000CA68121D12E0CA6808320FE0CA680C327D
:100560000CE08A682AB1012A4FF0080203D04561E5
:1005700004E0042202E0056100E00022FF2B01D824
:10058000064601E000F104064FEA840501D9A5F111
:100590002005D6F800C009FA05F82CEA080C02FA82
:1005A00005F54CEA050CC6F800C04D68ED0057D5BE
:1005B000304DAE6946F00106AE61AD6924F0030628
:1005C00005F0010500952C4D06EB050CDCF80850F4
:1005D000A6074FEA167809FA08F6B543274EB04247
:1005E00002D1002610E03BE0254EB04201D10126A9
:1005F0000AE0244EB04201D1022605E0224EB0426C
:1006000001D1032600E0042606FA08F62E43CCF8B2
:1006100008604D68DAF80060ED03554601D51E43C9
:1006200000E09E432E604D68DBF80060AD035D4640
:1006300001D51E4300E09E432E604D68DEF8006049
:10064000ED02754601D51E4300E09E432E604D68C5
:10065000AD020E4D2E6801D51E4300E09E432E6074
:10066000641C102CFFF444AFBDE8F88F0004014077
:10067000000011100010024000000140000801407D
:10068000000C014000100140001401400C04014026
:100690000AB1016170470904FBE700000148806866
:1006A000704700002400002002488168027811444D
:1006B0008160704724000020074810B5016841F0B0
:1006C00010010160032000F073F8002000F006F82C
:1006D00000F024F8002010BD0020024070B50D4D40
:1006E00004464FF47A712878B1FBF0F00A490968A2
:1006F000B1FBF0F000F0EEFE48B9102C07D200225A
:100700002146501E00F034F800206C6070BD0120BE
:1007100070BD000024000020300000200C4808B507
:10072000816941F001018161816901F0010100915C
:10073000C16941F08051C161C06900F080500090F2
:100740000448416821F0E06141F00071416008BD5A
:10075000001002400000014000F01F020121914002
:100760004009800000F1E020C0F80011704700004F
:10077000F0B40E4B1B680C46C3F30223C3F107050C
:10078000042D00D90425191D072901D2002300E0FA
:10079000DB1E012606FA05F1491E214099409E40C4
:1007A000761E16403143F0BC01F072B80CED00E04B
:1007B000064900F0070208684FF6FF03184040EAB8
:1007C0000220034A10430860704700000CED00E06F
:1007D0000000FA05014901200862704700000E423E
:1007E0000548016841F0020101600448016841F0D8
:1007F0000401016030BF70470070004010ED00E060
:1008000010B529A401461DCC86B08DE81D002AA094
:100810002A4C006804900020012923D002293AD0F4
:1008200010291DD161682268D20119D5C1F3834214
:10083000C9031DF8020009D5616804AAC1F340414B
:10084000515C1F4AB2FBF1F1484301E01D494843A6
:100850006168490204D440005FF00301B0FBF1F08D
:1008600006B010BD226AC2F30121012903D192070B
:1008700001D5C803F4E7022905D1626A920702D5BF
:1008800049F64040ECE70329EAD121688903E7D51E
:100890004FF22440E4E700F053F96168C1F381317D
:1008A000491C4900DAE700000203040506070809AD
:1008B0000A0B0C0D0E0F1010010200000010024078
:1008C00000127A0000093D002DE9F8430546007842
:1008D000354CC00754D0E0690026C00008D4E06958
:1008E00040F08050E061E069012600F08050009007
:1008F0002E480168C90512D40168804641F4807110
:100900000160FFF7CBFE074605E000BFFFF7C6FE1C
:10091000C01B642823D8D8F80000C005F6D5206A8B
:1009200010F4407021D0A98801F4407181421CD09C
:10093000206A1F49012220F440700A6000220A60E8
:100940002062C00711D0FFF7A9FE074641F28838A0
:1009500008E000BFFFF7A2FEC11B414502D90320FA
:10096000BDE8F883206A8007F4D5206A696820F41E
:100970004070084320621EB1E06920F08050E061C1
:100980002878800705D56068A96820F440400843AE
:1009900060602878C00605D56068E96820F48000AA
:1009A000084360600020DBE7001002400070004058
:1009B000400442422DE9F047DFF8548105460E46D7
:1009C000D8F8000000F00700B0420CD2D8F80010B0
:1009D00021F007013143C8F80010D8F8000000F0FA
:1009E0000700B0426FD128684A4C810712D54007F2
:1009F00003D5606840F4E06060602878000703D5A4
:100A0000606840F4605060606068A96820F0F000A1
:100A1000084360602878C00744D06868012816D071
:100A20002168022816D0890700294CDA616821F074
:100A3000030101436160FFF731FE6968074641F237
:100A4000883001290ED00229814618D026E021687D
:100A50008903E9E78901E7E7FFF720FEC11B494564
:100A600001D918E081466068C0F381000128F3D104
:100A700018E000BFFFF712FEC11B49450BD86068A4
:100A8000C0F381000228F5D10CE000BFFFF706FE9D
:100A9000C11B494502D90320BDE8F087606810F00A
:100AA0000C0FF3D1D8F80010404601F00701B14215
:100AB0000BD9016821F0070131430160006800F0A3
:100AC0000700B04201D00120E6E72878400705D5AD
:100AD0006068E96820F4E0600843606028780007F7
:100AE00006D56068296920F4605040EAC100606062
:100AF00000F036F86168084AC1F30311515CC84040
:100B0000064908600020FFF7E9FD0020C4E7000067
:100B1000002002400010024036360008300000205D
:100B20000448054900684968044AC1F30221515C40
:100B3000C8407047300000200010024046360008D0
:100B40000448054900684968044AC1F3C221515C60
:100B5000C8407047300000200010024046360008B0
:100B600012A185B00FC98DE80F0014A0144A0068C7
:100B700004905168134801F00C03042B10D0082B8B
:100B80000ED1C1F38343C9031DF803000AD5516890
:100B900004AAC1F34041515C0A4A5043B0FBF1F052
:100BA00005B0704708494843FAE70000020304050E
:100BB000060708090A0B0C0D0E0F101001020000A9
:100BC0000010024000127A0000093D002DE9F84FA4
:100BD00004460078B94DC00748D06868C0F381006A
:100BE000012807D06868C0F38100022809D168682D
:100BF000C00306D52868800338D5606800286FD008
:100C000034E06068B0F5803F0BD010B1B0F5A02F94
:100C100011D0286820F480302860286820F48020D3
:100C200002E0286840F480302860606888B1FFF7EF
:100C300035FD064609E0286840F480202860F0E78A
:100C4000FFF72CFD801B642875D828688003F7D532
:100C50000CE0FFF723FD064605E000BFFFF71EFD91
:100C6000801B6428F0D828688003F7D42078944E3D
:100C700080074FF001094FF000083BD5686810F07D
:100C80000C0F07D06868C0F38100022809D168689A
:100C9000C00306D42868800714D5206901281FD115
:100CA00010E02069B0B1C6F80090FFF7F7FC0746E6
:100CB00005E000BFFFF7F2FCC01B0228C4D828687B
:100CC0008007F7D52868616920F0F80040EAC10084
:100CD00028600FE0C6F80080FFF7E0FC074606E05A
:100CE000E9E000BFFFF7DAFCC01B022823D8286820
:100CF0008007F7D4207800072CD57248A169D9B1B4
:100D0000C0F80090FFF7CAFC074604E0FFF7C6FCF6
:100D1000C01B02280FD8686A8007F7D56A484FF4CD
:100D2000FA510068B0FBF1F0009000BF0098411E3E
:100D30000091FAD20EE080E0C0F80080FFF7AEFC30
:100D4000074604E0FFF7AAFCC01B022875D8686AB2
:100D50008007F7D42078400760D5E8690027C000F5
:100D600008D4E86940F08050E861E869012700F0A4
:100D70008050009055480168C90513D40168834626
:100D800041F480710160FFF789FC824606E000BFF4
:100D9000FFF784FCA0EB0A0064284ED8DBF80000C3
:100DA000C005F5D5E06801280AD008B1052813D0A0
:100DB000286A20F001002862286A20F0040002E07E
:100DC000286A40F001002862E06841F2883B98B14F
:100DD000FFF764FC82460BE0286A40F004002862BA
:100DE000EEE700BFFFF75AFCA0EB0A0159455AD8BD
:100DF000286A8007F6D50CE0FFF750FC824605E034
:100E0000FFF74CFCA0EB0A0159454CD8286A800733
:100E1000F6D41FB1E86920F08050E861E06988B33A
:100E20006968C1F38101022945D00228C6F86080B3
:100E300004D0FFF733FC044638E034E0FFF72EFC23
:100E4000074604E0FFF72AFCC01B02282BD82868BD
:100E50008001F7D4206AB0F5803F05D16868A168A9
:100E600020F4003008436860D4E908010843696849
:100E700021F4741108436860C6F86090FFF70EFC17
:100E8000044606E015E000BFFFF708FC001B02283F
:100E900009D828688001F7D50BE000BFFFF7FEFBFB
:100EA000001B022802D90320BDE8F88F28688001C2
:100EB000F4D40020F8E70120F6E70000001002401B
:100EC0000000424280044242300000200070004096
:100ED000024850F8210080B270470000006C0040CA
:100EE000024800EB810091B201607047006C004045
:100EF0007047704710B5044600680168C90716D0EE
:100F00004168C90713D040684007204607D5FFF75E
:100F1000F0FF21686FF004004860042002E0FFF752
:100F2000E7FF0120607421686FF00100486010BD88
:100F3000F8B505004FF0000016460C46009006D0AC
:100F40002CB100226946284600F019F808B10120AA
:100F5000F8BD287B2070E87BE070697B6170A97B1D
:100F6000A17056B100F0AEFCE070607800F0AAFC11
:100F70006070A07800F0A6FCA0700020F8BD2DE9FC
:100F8000F04791460C465FEA00084AD084B3D8F88F
:100F900000004068400744D4404600F038FD4FF45C
:100FA00061620546B0FBF2F1B0FBF2F302FB1350B5
:100FB0003C23B0FBF3F0B5FBF2F6607002FB165079
:100FC000B0FBF3F203FB1200A070182931D31820F4
:100FD000B1FBF0F7B1FBF0F200FB121020704046BD
:100FE00000F00EFD411C04D0A84202D9461B02E0CD
:100FF00017E04FF0FF36A7EB071000EB4000C0EB07
:10100000001005EBC0152946404600F09AFD40B996
:10101000701C01D0711900E03146404600F07DFDA2
:1010200010B10120BDE8F0873946404600F055FC7C
:1010300000E02170B9F1000F0BD0207800F042FCE5
:101040002070607800F03EFC6070A07800F03AFC00
:10105000A0700020E6E7000070B5040003D0607CBB
:10106000002610B105E0012070BD2674204600F076
:1010700043F802206074204600F08EF9042578BB06
:10108000204600F081FC58BB2068416821F0070130
:101090004160A06820B11748016821F0010101609A
:1010A0001448001F0168A26821F4607111430160B7
:1010B0006068411C04D10120FFF7A2FB80B1401EF3
:1010C00021688A6822F00F0242EA10428A60216891
:1010D000CA6860F30F02CA60204600F06FFC08B1D6
:1010E0006574C0E7E67301206073A073607400202C
:1010F00070BD0000306C004008B500680D498842A2
:1011000017D1FFF767FB0C48C16941F00061C1616D
:10111000C0690A4900F000600090012008600022C8
:1011200011460320FFF724FBBDE808400320FFF72A
:1011300013BB08BD00280040001002403C0442429E
:101140002DE9F8434FF0000617460D4604000096BF
:101150000FD075B1207C01280ED04FF0010984F822
:10116000109002206074002269462046FFF707FFB6
:1011700020B10120BDE8F8830220FBE79DF80000C4
:101180004FF4616148439DF80110C1EB011100EB80
:1011900081009DF8021000EB01082878E7B100F00B
:1011A00088FB4FF4616100FB01F7687800F081FB78
:1011B000C0EB001007EB8007A87800F07AFB391825
:1011C000414501D216480144204600F0A6FC70B10A
:1011D000042060742674CCE74FF461614843697859
:1011E000C1EB011100EB8100A9780144E8E7216817
:1011F0006FF0020048602068016841F00201016060
:101200000848016841F4003101600648083001686F
:1012100041F40031016084F8119026740020A9E7A0
:1012200080510100000401402DE9F0410D46040009
:101230003BD0C5B3207C01283AD04FF0010884F898
:10124000108002206074E87872B300F032FBE07323
:10125000687800F02EFB6073A87800F02AFBA0737A
:10126000C2B2617BE07B00F02DFC20732870204629
:1012700000F0CDFB4FF46161B0FBF1F100251829BE
:101280002DD91822B1FBF2F1A1EB011101EB4101C3
:10129000C1EB011100EBC1163146204600F051FCB4
:1012A0000427C8B90BE000E004E00120BDE8F081AC
:1012B0000220FBE7E07368786073A878CFE72046E8
:1012C00000F09EFB411C0AD0B04208D206490144FE
:1012D000204600F022FC10B167742574E5E784F81D
:1012E000118025740020E1E7805101002DE9F041D3
:1012F0000D46040024D01DB3207C012823D04FF0DC
:10130000010884F81080022060742878EAB100F0A7
:10131000D0FA4FF4616100FB01F6687800F0C9FA79
:10132000C0EB001006EB8006A87800F0C2FA351872
:101330002946204600F005FC0026042710BB0FE0DC
:101340000120BDE8F0810220FBE74FF461614843D2
:101350006978C1EB011100EB8100A9784518E7E736
:101360002068416821F005014160204600F048FBFB
:10137000411C0AD0A84208D206490144204600F088
:10138000CCFB10B167742674DAE784F811802674F8
:101390000020D6E78051010070B504000AD0206813
:1013A000416821F008014160FFF778F905464FF4E4
:1013B0007A7608E0012070BDFFF770F9401BB0425B
:1013C00001D9032070BD206840680007F4D50020D3
:1013D00070BD70B5040005D00025A56294F85100D9
:1013E00010B104E0012070BD204600F033F8022067
:1013F00084F851002068016821F040010160D4E9BF
:1014000001010843D4E90312114308436169084309
:10141000218B01F400710843E1690843216A084304
:10142000A16A084321680860A069042101EA10400C
:10143000616A0843216848602168E06A08612068A1
:10144000C16921F40061C1616565012084F8510022
:10145000002070BD30B585B0002400940194029442
:1014600003940068174988422AD11748816941F4DA
:1014700080518161816901F480510491816941F059
:10148000080181618069114D00F008000490282056
:101490000090022001900320039069462846FFF740
:1014A00019F81020CDE90004694628460294FFF798
:1014B00011F80748416841F0E06141F001014160E5
:1014C00005B030BD0030014000100240000C01406A
:1014D0000000014010B5401EB0F1807F01D3012013
:1014E00010BD4FF0E02460610F21601700F0D0F9CB
:1014F0000020A06107202061002010BD70B504000D
:1015000004D094F83900002510B106E0012070BD28
:1015100084F83850204600F023F8242084F839005D
:101520002068C16821F40051C160204600F0A2FB90
:101530002068016921F4904101612068416921F02E
:101540002A0141612068C16841F40051C160E5632E
:10155000202084F8390084F83A00002070BD000093
:1015600070B586B000240094019402940394234E35
:101570000368234902200322224DB34219D18B690B
:1015800043F480438B618B6903F4804304938B693C
:1015900043F004038B618969039201F00401049113
:1015A0000102CDE9001069462846FEF793FF281591
:1015B0001BE0154EB3421FD1CB6943F40033CB611E
:1015C000CB6903F4003304938B6943F004038B610C
:1015D0008969039201F0040104910421CDE900100E
:1015E00069462846FEF776FF0820CDE900046946E3
:1015F00028460294FEF76EFF06B070BD0038014029
:101600000010024000080140004400402DE9F8436A
:10161000044690F839001F4616460D46202850D142
:10162000A5B19EB194F8380001284AD0012084F871
:1016300038004FF00008C4F83C80212084F83900BD
:10164000FFF72CF8A6848146E68426E00120BDE859
:10165000F883E08C401EE084A0684B46B0F5805FC4
:101660004FF000024FF080012046009703D000F0B9
:10167000B9FBE8B90DE000F0B5FBC8B928882168CE
:10168000C0F308004860206908B16D1C05E0AD1C7E
:1016900003E0216815F8010B4860E08C0028D8D1E0
:1016A0004B46002240212046009700F09BFB08B1EA
:1016B0000320CCE7202084F8390084F8388000200B
:1016C000C5E70220C3E7FEE73EB500240D480094BD
:1016D000019402948460C460094944610160012559
:1016E00005614FF460214460C161FEF727FE0420CC
:1016F000CDE90005694602940248FEF7A1FD3EBD12
:10170000002401403C00002010B504490448FEF7C5
:1017100073FD0249491E087010BD00001D00002025
:10172000080000202DE9F04F85B0002431480094D6
:10173000019402940394816941F0100181618169EF
:1017400001F010010491816941F0200181618169FA
:1017500001F020010491816941F0040181618169F6
:1017600001F004010491816941F0080181618069FF
:10177000DFF8849000F008004FF400550490002238
:1017800029464846FEF784FFDFF870A04FF41C6737
:10179000002239465046FEF77BFFDFF864B04FF475
:1017A0001078002241465846FEF772FF0126CDE927
:1017B0000056022569464846CDE90245FEF78AFEF5
:1017C000CDE9007669465046CDE90245FEF782FE36
:1017D000CDE90054694658460294FEF77BFECDE9F8
:1017E000008669465846CDE90245FEF773FE05B00E
:1017F000BDE8F08F001002400010014000080140D9
:10180000000C01401CB500241248019410490094BA
:101810000160611EC0E90114FFF71EFC8DF8044051
:101820008DF805408DF80640012201A90948FFF70F
:101830005DFD01208DF800008DF801008DF802009B
:1018400002468DF8034069460248FFF7EDFC1CBDD7
:10185000002800406C0000200B480A494FF4007239
:1018600001604FF48271416000218160C1600161BB
:10187000C0E90512C1610162416281620A21C1624F
:10188000FFF7A7BD0030014080000020FEE7704751
:101890000907090E002806DA00F00F0000F1E02029
:1018A00080F8141D704700F1E02080F800147047A4
:1018B0007047010901EB810100F00F0000EB4100CE
:1018C000C0B27047002102E00A38C0B2491C0A28A1
:1018D000FAD2090740EA116070472DE9F041044649
:1018E0000025C07B627BA37B42E0012A16D0032A3D
:1018F00014D0052A12D0072A10D0082A0ED00A2A9E
:101900000CD00C2A0AD0042A10D0062A0ED0092A9C
:101910000CD00B2A0AD0022A0DD028E01F2B0CD3A2
:101920000C2A05D101221346401C20E01E2B04D3B3
:101930000123521C1BE01C2B02D203F1010316E011
:1019400011D183B29E0710D16426B3FBF6F706FBD4
:10195000173636B94FF4C876B3FBF6F706FB1733E4
:101960001BB91D2303E01D2B01D1032201236D1C94
:101970008D42BAD3D1B2E0736173DAB2A27300F0D0
:10198000A1F82073BDE8F08170B50446FEF786FE2D
:1019900005464FF47A7606E0FEF780FE401BB04223
:1019A00001D9032070BD206840688006F4D5206806
:1019B000416841F010014160002070BD70B50446DF
:1019C0000068416821F010014160FEF767FE05469E
:1019D0004FF47A7607E000BFFEF760FE401BB0428E
:1019E00001D9032070BD206840688006F4D500202E
:1019F00070BD00000148FFF77DBA00006C000020B8
:101A00000168086A496A89B241EA00407047006883
:101A100081698AB2C1698BB2816989B28A4203D075
:101A2000C06961F31F40704743EA024070470000FD
:101A30003EB50446012269460F48FFF7A0FA002090
:101A40000290BDF80000ADF80400641EA0B20A22A6
:101A5000B0FBF2F302FB1303B0FBF2F09DF80210AF
:101A600003EB001008448DF80600012201A902488A
:101A7000FFF766FB3EBD00006C00002008B50023A8
:101A800000938DF803208DF801108DF802000122DB
:101A900069460248FFF7C8FB08BD00006C00002043
:101AA00008B5002300938DF800008DF801108DF823
:101AB0000220012269460248FFF718FC08BD000019
:101AC0006C000020F0B56424C1EBC1030927A50018
:101AD000072603EB01130329B3FBF7F100F5FA60C6
:101AE000114401440AD2401EB0FBF4F201EB900114
:101AF000B0FBF5F0891A0844001D08E0B0FBF4F2D1
:101B000001EB9001B0FBF5F0891A0844801CB0FB92
:101B1000F6F106FB1100C0B2F0BD70B50D460646E9
:101B20000024FFF731FF48B93168280C086231689A
:101B3000A8B248623046FFF741FF00B101242046B9
:101B400070BD70B50D4606460024FFF71DFF48B96D
:101B50003168280C88613168A8B2C8613046FFF747
:101B60002DFF00B10124204670BD000070B50C4669
:101B70000546002210A1114800F018FE00281AD1D5
:101B8000132229460E4800F03FFE002813D10C48CE
:101B9000D0F80C1200F0C8FC0949204600F004FF00
:101BA000074800F0ABFC002805D1BDE870400122D9
:101BB00001A100F0FBBD70BD000000007C01002011
:101BC000AC0300207047FEF76FBD10B594B028211C
:101BD0006846FEF7AEFA14210AA8FEF7AAFA002416
:101BE0000F940A200090012010941194CDE906046E
:101BF0001021CDE9040112946846FEF7E7FF0F209B
:101C0000CDE90A049020CDE90C0400210AA80E9425
:101C1000FEF7D0FE03200F904FF40070CDE91004C2
:101C20000FA8FEF751FE14B010BD00000D4801686A
:101C300041F00101016041680B4A114041600168B7
:101C40000A4A11400160016821F480210160416865
:101C500021F4FE0141604FF41F0181600449C0037B
:101C600008607047001002400000FFF8FFFFF6FE1A
:101C700008ED00E02DE9F041044600680169E268E2
:101C800021F44051114301612169A0680843616951
:101C900008432168CA6841F20C639A430243CA6050
:101CA00020684169A26921F44071114341614C49A6
:101CB00020686425322688423CD1FEF741FF00EBC4
:101CC000C00101EB001061688900B0FBF1F7FEF77D
:101CD00037FF00EBC00101EB00106168B0468900DE
:101CE000B0FBF1F0B0FBF5F06FF01801484307EBE3
:101CF000800106EB0110B0FBF5F000F0F006FEF7F6
:101D00001FFF00EBC00101EB001061688900B0FB10
:101D1000F1F0B0FBF5F006EB0016FEF711FF00EB5B
:101D2000C00101EB001061688900B0FBF1F7FEF71C
:101D300007FF3BE0FEF7F4FE00EBC00101EB0010F3
:101D400061688900B0FBF1F7FEF7EAFE00EBC00125
:101D500001EB00106168B0468900B0FBF1F0B0FB08
:101D6000F5F06FF01801484307EB800106EB011016
:101D7000B0FBF5F000F0F006FEF7D2FE00EBC0017C
:101D800001EB001061688900B0FBF1F0B0FBF5F0E9
:101D900006EB0016FEF7C4FE00EBC00101EB0010DD
:101DA00061688900B0FBF1F7FEF7BAFE00EBC001F5
:101DB00001EB001061688900B0FBF1F0B0FBF5F0B9
:101DC0006FF01801484307EB800108EB0110B0FBEE
:101DD000F5F0216800F00F0030448860BDE8F08124
:101DE000003801402DE9F041984617460E4604465A
:101DF000069D1DE0681C1BD02DB1FEF74FFCA0EB2B
:101E00000800A84214D92068C16821F4D071C160CB
:101E10002068416921F001014161202084F83900E6
:101E200084F83A00002084F838000320BDE8F081EF
:101E30002068006836EA000004D00020B842D9D0FB
:101E40000020F3E70120F9E7024801210170007842
:101E500070470000040000200120704700207047F8
:101E60000248012101700078704700000400002042
:101E700000207047FEE702E008C8121F08C1002AD0
:101E8000FAD170477047002001E001C1121F002AFB
:101E9000FBD1704710B50446002084F80402401EB0
:101EA000C4F82C02204601F00DFA08B1032010BD41
:101EB000B4F8FE01A0F52A41553901D0022010BD29
:101EC00094F83600B4F8371040EA01210848B0EB26
:101ED000012F08D094F85210B4F8532041EA02219F
:101EE000B0EB012F01D1002010BD012010BD00007A
:101EF00000464154F0B50022184B144602EB42064E
:101F000053F8265085B1D0F80072BD420DD103EBD5
:101F10008605D0F808626F68B74206D12D89B0F8FF
:101F20000662B54204D000E00124521C022AE5D327
:101F3000022A01D079B904E05CB9022909D0122043
:101F4000F0BD02EB420003EB80004089B0F5807FDA
:101F500001D00020F0BD1020F0BD0000580100208D
:101F600030B50021064A0C4601EB410352F82350DC
:101F7000854201D142F82340491C0229F4D330BDE7
:101F800058010020D0F82422D0F80002490A90F825
:101F90000202B1FBF0F0121D02CA19B1884203D34C
:101FA000401AF8E700207047116808447047D0F8DD
:101FB0001422891E921E8A4201D800207047D0F850
:101FC000282290F8020201FB002070472DE9F04121
:101FD0000F00054606D000F0DDFF02280BD20120DD
:101FE000BDE8F081D5F80C621EB1D5F81402B042FC
:101FF00008D8012606E0411CF2D0D5F8141281421F
:10200000EED83E463446D5F81402641CA04202D8ED
:102010000224022E0AD32146284600F0BBFF38B125
:10202000411CDDD00128DBD0B442ECD10020D7E741
:102030006FF070422146284601F07EF930B957B161
:1020400022463946284601F077F920B1012812D0FE
:1020500001242046C4E7C5F80C42D5F81002411C03
:10206000F7D0401EC5F8100295F8050240F00100B7
:1020700085F80502EDE74FF0FF34EAE72DE9F04778
:1020800089460C6800E0641C21782F29FBD05C296C
:10209000F9D0D0F818520B222021284601F00BF974
:1020A000002001460B460826E25C5B1C202A35D93D
:1020B0002F2A33D05C2A31D02E2A01D0B04208D347
:1020C000082E38D12E2A36D108200B268906090E73
:1020D000EAE7802A05D3244F41F003013A4412F87D
:1020E000802C22A700E07F1C97F800C0BCF1000FF5
:1020F00002D09445F7D11EE0A2F14107192F02D872
:1021000041F0020107E0A2F16107192F03D8203A3C
:1021100041F00101D2B22A54401CC5E71C44C9F861
:102120000040202A01D8042200E0002218B12878BB
:10213000E52803D004E00620BDE8F08705202870DC
:10214000082E01D18806010E01F00300012801D1FB
:1021500042F01002C1F38100012801D142F00802CF
:10216000EA720020E8E700004E360008222A2B2CF5
:102170003A3B3C3D3E3F5B5D7C7F000010B50A234F
:10218000072208A10948FFF741FA002404F14100A1
:10219000C2B20648611CAC38FEF7A2FE641C0A2CD1
:1021A000F4DB10BD536176696E670A0018010020E8
:1021B0003EB50A2309220EA11048FFF727FA002492
:1021C0006D460E48611CAC38FEF782FE2855641C33
:1021D0000A2CF6DB0A231A4669460848FFF716FA66
:1021E0000A23012204A10548FFF710FA3EBD0000B2
:1021F00052656164696E673A0A00000018010020A8
:10220000401E022815D20C4B00EB400203EB82016A
:102210004889B0F5807F05D008B1401E80B2488162
:1022200010B104E00020FAE7002043F8220000206B
:102230007047022070470000580100202DE9F0414E
:10224000B0F806620446761C30040F46000C37D006
:10225000D4F8100298B3310773D1401CC4F81002AF
:10226000D4F80C12D4F8000231B190F80222521EB8
:1022700012EA161F05D064E0B0F80802B0421FD978
:102280005FE000F087FE054601281ED9681C3AD0A1
:10229000D4F80002D0F81412A94249D87FB1D4F87A
:1022A0000C12FFF793FE05000DD0012D0DD0681C18
:1022B00029D0D4F8000201F078F920BB07E0FFE74D
:1022C0000420BDE8F0810720FBE70220F9E74FF486
:1022D00000720021D4F8000200F0EDFF2946D4F886
:1022E0000002FFF764FED4F8001200274FF0010847
:1022F000C1F82C0211E000BF80F80482D4F800027B
:1023000001F053F908B10120DBE7D4F80002D0F85E
:102310002C12491C7F1CC0F82C12D4F8000290F833
:102320000212B942E8D8D0F82C12C91BC0F82C12FE
:10233000C4F80C522946D4F80002FFF738FEC4F85E
:102340001002A4F80662D4F8000206F00F0100EBB8
:102350004110C4F814020020B3E770B50446002110
:1023600000F036F810E0D4F81012D4F8000200F0B3
:10237000A9FF58B9D4F814020078E52809D040B173
:1023800001212046FFF75AFF0028ECD0042809D08D
:1023900009E0D4F81012D4F8000200F093FF050011
:1023A00003D013E00720054610E0D4F814022022E1
:1023B000002104F5007400F07EFFD4E905010B2232
:1023C00000F070FF2168012081F80402284670BDEA
:1023D00070B5A0F80612D0F808320D460446012B5D
:1023E00040D0D4F80002D0F8141299423AD933B947
:1023F00090F80012032906D1D0F824321BB190F8CE
:102400000202060114E0B0F80812A9422AD9D0F855
:10241000240214E000F0BEFD0346401C20D0022B35
:1024200020D3D4F80002D0F8140298421AD9AD1B78
:10243000D4F80002B5421946ECD2FFF7B8FDC4F853
:102440000C3278B100EB1510C4F81002D4F8000279
:1024500005F00F0100EB4110C4F81402002070BD1C
:10246000012070BD022070BD084910B50B5C002230
:1024700053B901220A540A1801EB8000127A40680D
:102480000168104688470246104610BD70010020C2
:1024900030B4054C231804EB80001B7A40680469B3
:1024A0001846A44630BC60477001002030B4054D8A
:1024B0002C1805EB8000247A406885682046AC46DD
:1024C00030BC604770010020044A111802EB800004
:1024D000097A4068426808461047000070010020F1
:1024E00030B4054D2C1805EB8000247A4068C5688F
:1024F0002046AC4630BC60477001002010B5044651
:1025000000F075FA00280DD1204601F07EF8002871
:1025100008D1D4F82802FFF773FE002802D1002169
:10252000C4F8001210BD00002DE9FC5F0D46044602
:1025300001F06BF85FEA000973D194F807020028F4
:102540006FD1D4F8240201274FF0020A002869D085
:10255000691C33D0D4F80C02A84200D20546C4F856
:102560000852002D5CD02046691EFFF70BFD014686
:10257000C4F81402D4F80002FFF719FD00287CD03B
:10258000D4F800126D1E91F80222521E02EA552262
:102590001518B4F80802C005E4D0D4F81822AA42ED
:1025A000E0D094F80602400646D591F801020123D6
:1025B0002146FFF795FF002874D137E002C800914B
:1025C000D4F810128346022509B30026AD1C0191F0
:1025D0008846761CD4F8000200F0DCFC0146012895
:1025E0004BD9481C5ED008F101008142F0D0009820
:1025F000854206D8CBF800600BF10400019A04C0B4
:102600008346D4F80002D0F814028842DDD8D4F80A
:10261000240205600098854205D80021CBF80010FF
:10262000C2E09DE016E04FF01109BDE094F806020B
:1026300020F0400084F80602D4F8000201232A4664
:1026400090F801022146FFF731FF00282AD1C4F893
:102650001852A9E0D4F80C02A84204D294F8061249
:10266000890700D405464FF00008D4F80802C4F8E2
:1026700008824DB3D4F8002200E06EE092F8021216
:102680004E0280B1691E401EB1FBF6F1B0FBF6F3BD
:10269000994208D3711E8843C4F808022D1AD4F851
:1026A000141210E06EE0D4F8101251B90021104657
:1026B000FFF78CFC014601284FD0481C62D0C4F8BB
:1026C0001012C4F8141211BB31E000BF94F80602D6
:1026D0008007D4F8000205D5FFF778FC010004D18B
:1026E000354616E000F056FC0146481C4AD0012948
:1026F00033D9D4F80002D0F8140288422DD9C4F896
:102700001412D4F80802AD1B3044C4F80802B542D4
:10271000DCD8D4F808022844C4F80802E80506D03A
:10272000D4F80002FFF743FCB8B100EB5528B4F829
:102730000802C0052CD0D4F81822424528D094F8BD
:102740000602400614D5D4F800020123214690F871
:102750000102FFF7C5FEA8B904E084F807A2022031
:10276000BDE8FC9F94F8060220F0400084F80602C1
:10277000D4F800020123424690F801022146FFF7F7
:1027800095FE18B184F807720120E9E7C4F81882B1
:10279000D4E98201884207D9C4F80C0294F80602F1
:1027A00040F0200084F806024846D9E72DE9F741B9
:1027B00081B0904602980090684600F04EFC0400FC
:1027C00003D50B2004B0BDE8F0810E4E002756F86B
:1027D000245025B12846FFF7C3FB85F80072019805
:1027E000002801D080F8007246F8240002D0B8F129
:1027F000010F01D00020E5E7002202A901A800F0A6
:102800003DFADFE7380000202DE9F747ADF50B7DF5
:1028100006000ED04FF0000802F01F0727F001025B
:102820008CA980A8C6F8008200F028FA040005D020
:10283000B4E009200DF50E7DBDE8F08788A88690EC
:1028400068468C9900F046FB859D04000BD11DB1B4
:10285000780803D0012102E0062404E00021684644
:10286000FFF748FB044617F01C0F5FD04FF0010A3A
:10287000D4B1042C13D100204A4902E0401C0228A4
:1028800005D200EB400251F82220002AF6D102289E
:1028900004D06846FFF761FD044600E01224859DE0
:1028A00047F0080754B179E0E87A10F0110F01D031
:1028B000072473E0780701D508246FE0380743D573
:1028C00000F0C9FBA873010AE973010C2974000E1A
:1028D000687485F80B8085F81C8085F81D8085F864
:1028E0001E8085F81F802946809800F025FC8146CF
:1028F0000021284600F0F6FD8099B9F1000F81F81B
:1029000004A21FD080984946D0F82CA200F0B3FD55
:10291000040043D18099A9F10100C1F80C0251468D
:10292000809800F0CFFC04000AD037E0B4BBE87A0E
:10293000C10601D5042431E0B90701D5C007B7D1DC
:10294000380701D547F020078098D0F82C02C6E957
:102950008705780801D0012100E00021684600F0D9
:102960009BFBC6F82802D8B186F8067286F8078263
:102970004746294606F50076809800F0DDFB306179
:10298000287FD5F81D1040EA0120C6E90270B76122
:10299000776280983060B0F80602B080204649E740
:1029A0000224FBE75801002010B596B00446002031
:1029B000CDE90210049003E002A8641C00F038FD89
:1029C00021780029F8D1039800280DDB024601ABDD
:1029D00005A9029800F067F830B901990398884278
:1029E00002D1049816B010BD4FF0FF30FAE770B571
:1029F000044600F00AFE002811D194F806128A0657
:102A00000DD5480612D5D4F800020123214690F8CE
:102A10000102D4F81822FFF763FD08B1012070BD50
:102A200094F8060220F0400084F80602D4F81C1244
:102A3000D4F8000200F046FC0028F0D1D4F820526F
:102A4000E87A40F02000E87294F80C022877B4F895
:102A50000C02000A6877D4F80C02000CA877D4F8AE
:102A60000C02000EE877D4F81012284604F5007422
:102A700000F038FD00F0EFFAA875010AE975010CC5
:102A80002976000E68760020A874E874A07920F0FA
:102A90002000A0712168012081F804022068BDE8AF
:102AA000704000F027BD2DE9F84F88460021994677
:102AB00015460446196000F0A8FD002808D194F8D6
:102AC0000702002804D194F80602800702D40720E8
:102AD000BDE8F88FD4F80802012741194FF0020A27
:102AE00081427BD3B9E0D4F80812C80577D1D4F875
:102AF000002292F80202401E00EA512010F0FF0668
:102B00001ED131B1D4F8240240B12046FFF73AFA81
:102B100009E0D4F8100240B9002101E0D4F8141201
:102B20001046FFF753FA002858D001283DD0411C29
:102B30006CD0C4F81402D4F8101209B9C4F8100209
:102B400094F80602400610D5D4F80002012321466D
:102B500090F80102D4F81822FFF7C2FCE8BB94F801
:102B6000060220F0400084F80602D4F81412D4F8CB
:102B70000002FFF71CFAC0B130440090680A5FEA17
:102B8000000B30D0D4F8000206EB0B0290F80212D2
:102B90008A4201D9A1EB060B90F801025B4641463F
:102BA000009AFFF79DFCC0B903E084F807A2022059
:102BB0008EE7D4F818120098081A58450CD208EB82
:102BC00040214FF40072204600F06CFB94F806029E
:102BD00020F0400084F8060202E017E040E01CE02C
:102BE0004FEA4B262DE0D4F818120098814211D0FC
:102BF000D4E9820188420DD2D4F800020123214693
:102C000090F80102009AFFF751FC18B184F807729E
:102C100001205DE70098C4F81802B4F80802C0F378
:102C20000800C0F50076AE4200D92E462044324658
:102C3000414600F037FB94F8060240F0400084F86B
:102C40000602D4F80802B0443044C4F80802D9F8A7
:102C500000008119AD1BC9F80010002D7FF443AFAF
:102C6000D4E98201884201D9C4F80C0294F8060222
:102C700040F0200084F80602002029E72DE9FF47F4
:102C80004FF000090746C0F800901646084600F0CD
:102C9000E4F9050003D50B2004B0BDE8F0878A48AD
:102CA00050F82540A4B13C6094F8000228B194F893
:102CB0000102FFF709FCC1070CD084F80092E8B2CA
:102CC00084F80102FFF7D0FBC10708D00320E3E737
:102CD0000C20E1E70EB1400704D40020DCE71EB170
:102CE000400701D50A20D7E7002529462046FFF7EF
:102CF000D1F8012823D100204FEA0D0704EB001181
:102D000091F8C22101F5DF712AB10A7AD1F80910D0
:102D100042EA012100E0002147F82010401C04286D
:102D2000ECD3002657F826502DB129462046FFF750
:102D3000B1F808B909E00220761C042EF2D303286A
:102D400001D0E0BB01E00120A6E7B4F80B00B0F52C
:102D5000007F60D1E28A2AB994F82400D4F82510C3
:102D600040EA0122C4F81822217C84F803120129C8
:102D700001D002294FD1607B514384F80202F0B1A7
:102D8000431E184247D1B4F81130A4F808321E0788
:102D900041D1B4F813602EB994F82060D4F82170B2
:102DA00046EA0726B4F80EC0BCF1000F33D00CEB96
:102DB000010707EB1317BE422DD3F61B00E02AE0F4
:102DC000B6FBF0F038B3012640F6F678404500D364
:102DD00002264FF6F678404500D30326801C2F4488
:102DE000C4F82872AC44C4F81402C4E9875C032E0A
:102DF00013D083B16144C4F82412022E19D000F01C
:102E0000010100EB400001EB500000BF00F2FF1099
:102E1000B2EB502F0FD20D203EE7002BFBD194F8E0
:102E20002C10D4F82D30800041EA0321C4F824127C
:102E3000ECE74000EAE74FF0FF30C4F81002C4F8B6
:102E40000C02802084F80502032E30D1208E012848
:102E50002DD12046691C00F035FA40BB84F805925C
:102E6000B4F8FE01A0F52A41553920D12078D4F8D4
:102E7000011040EA01201549884218D194F8E40174
:102E8000D4F8E51140EA0120114988420FD194F8A5
:102E9000E801D4F8E91140EA0120C4F8100294F8DE
:102EA000EC01D4F8ED1140EA0120C4F80C02064907
:102EB00084F80062091F0888401C0880A4F80602F4
:102EC0002046FFF74DF808E73800002052526141D4
:102ED0007272416173B50446019908782F2801D0B8
:102EE0005C2801D1491C01910025C4F808520198C1
:102EF0000078202806D200212046FFF769FAC4F89E
:102F000014527CBD01A92046FFF7B8F80028F8D17B
:102F100000212046FFF75CFA20BB00BFD4F8101256
:102F2000D4F8000200F0CEF9E0B9D4F814120A780F
:102F300032B1CA7A12070FD40A23D4F8182203E058
:102F400004200FE05B1E06D311F8015B12F8016B41
:102F5000AD1BF7D000E02DB100212046FFF76EF940
:102F60000028DBD0D4F81812C97A28B10428C8D1B7
:102F70004907C6D405207CBD4907FCD4D4F81412F7
:102F8000C87AC006F6D5D4F8000200F0D5F8C4F827
:102F90000802B7E72DE9F0410D46044602290DD39A
:102FA000D4F81402A84209D994F800024FF0FF3671
:102FB000012807D002282AD0032836D0012630461F
:102FC000BDE8F081D4F8200205EB550700EB57214E
:102FD000204600F077F90028F1D1C7F308007F1CE4
:102FE00014F80080D4F8200200EB5721204600F0AE
:102FF00069F90028E3D1C7F30800215C48EA012001
:10300000E90701D00609DAE7C0F30B06D7E7D4F8E1
:10301000200200EB1521204600F054F90028CED103
:10302000E8B204EB40000688C9E7D4F8200200EBC0
:10303000D511204600F046F90028C0D140F2FF101B
:1030400000EA850020440178D0F8010041EA002020
:1030500020F07046B3E70020704710B504464FF0EB
:10306000FF302268002A13D0114600E0491C0B787B
:10307000212B0ED33A2BF9D112F8013B303B0A2B0E
:1030800006D28A4204D1002B02D1491C1846216085
:1030900010BD002010BD0000F0B50346254AD3F84E
:1030A0000042002000EB400552F82560A6420BD1FB
:1030B00002EB8505D3F808626F68B74204D12D8909
:1030C000B3F80662B54202D0401C0228EAD30228B7
:1030D0001AD1002002E0401C022805D200EB400576
:1030E00052F82550002DF6D1022815D000EB4005EE
:1030F00042F8254002EB8504D3F808626660B3F815
:103100000632238100236381002900EB400102EB9A
:103110008101498902D019B10020F0BD491C01E0AC
:103120004FF4807100EB400302EB8302401C51819D
:10313000F0BD0000580100200246488B92F80022A2
:10314000032A02D1898A40EA01407047FDF7B4FAA8
:10315000FEF73BFDFEF7E6FAFEF7B6FAFEF752FB86
:10316000344833494FF4E13500240160C0E901548B
:103170000C26C460C0E904468461C461FEF7BEF950
:103180002C482D4940300160C0E90154C460C0E9B9
:1031900004468461C461FEF7B1F9FEF75DFBFEF7FA
:1031A000B3FA24480A23062224A14030FEF72EFA5F
:1031B00024A128A0FEF7DAFC294C60684FF00A032E
:1031C000C04380070CD41B48072226A14030FEF7DD
:1031D0001DFAFCF7FFFF206840F00800206007E0C0
:1031E0001448152221A14030FEF710FAFCF7E4FF45
:1031F00000F084F80F480A23072222A14030FEF78E
:1032000005FA274C4FF400564FF4FA750022314668
:103210002046FDF73DFA2846FDF74AF901223146DE
:103220002046FDF735FA2846FDF742F9EEE70000A3
:1032300000380140D80000200044004053746172FF
:10324000740A0000496E697469616C697A6564206A
:103250002121210047656E6572616C2E74787400BF
:103260000070004057616B6555700A0046697273C3
:103270007420496E697469616C697A6174696F6EF2
:103280000A00000057616B655570204265666F72D9
:1032900065205768696C65204C6F6F700A000000EC
:1032A0000010014004E000BF11F8013B00F8013BB1
:1032B000521EF9D27047C9B201E000F8011B521E3C
:1032C000FBD2704770B50546D0F82C020C4600269C
:1032D000A04210D0284600F068F906000BD195F8FE
:1032E0000102012322462946FFF7E0F808B1741EC7
:1032F0000126C5F82C42304670BD000010B50A20EA
:10330000FEF796FBFEF73AFF0A23072206A10848BC
:10331000FEF77CF90748016841F004010160BDE84F
:103320001040FDF75DBA0000536C6565702E0A0011
:1033300018010020007000402DE9F04717460D46A7
:103340000446022903D3D4F81402A84202D802206A
:10335000BDE8F08794F8001207F0FF084FF001096C
:10336000012920D0022950D00329F0D1D4F820021D
:1033700000EBD5112046FFF7A5FF0028E8D140F269
:10338000FF1101EA85010A194FF07043D2F80110CC
:1033900003EA0121394311700B0A53700B0C93702F
:1033A000090ED17041E0D4F8200205EB550600EB80
:1033B00056212046FFF786FF0028C9D1C6F3080032
:1033C000761C2044E90703D0017868F31F1100E060
:1033D0003946017084F80492D4F8200200EB56219B
:1033E0002046FFF76FFF0028B2D1C6F30801214441
:1033F000EA0702D0C7F3071205E00A78C7F30323F0
:1034000002F0F0021A430A700FE0D4F8200200EB39
:1034100015212046FFF756FF002899D1E9B204EBA9
:1034200041013A0A81F800804A7084F804928FE7DB
:10343000F8B50E4604460A2902D10D21FFF7F8FF20
:103440006568002D16DB60196D1C06733D2D0DDBC4
:103450006B462A4604F10C012068FFF724FB009814
:10346000A84201D1002501E04FF0FF356560A0685A
:10347000401CA060F8BD2DE9F0410F460646022928
:1034800017D3D6F81402B84213D9002523E03946E1
:103490003046FFF77FFD040021D0012C09D0601CCD
:1034A00009D0002239463046FFF746FF050016D105
:1034B00003E0022513E0012511E0D6F81002411CBB
:1034C00008D0401CC6F8100296F8050240F0010032
:1034D00086F805022746D6F81402B842D7D82846FF
:1034E000BDE8F08181760A0AC2760A0C0275090EDF
:1034F0004175704770B5044600F057F8050052D189
:1035000094F80002032846D194F80502012842D11C
:10351000420200212046FFF7CEFE552084F8FE012E
:10352000AA2084F8FF015220207060706120A070F2
:103530004121E170722284F8E42184F8E52184F8C5
:10354000E61184F8E701D4F8100284F8E801010AD2
:1035500084F8E911010C84F8EA11000E84F8EB01FB
:10356000D4F80C0284F8EC01010A84F8ED11010C86
:1035700084F8EE11000E84F8EF01D4F81C22012328
:10358000521CC4F82C2294F801022146FEF7A8FF31
:10359000002084F80502002294F801021146FEF78B
:1035A00077FF00B10125284670BD2DE9F0410446A2
:1035B00090F80402002728B3D4F82C5294F80102A2
:1035C00001232A462146FEF78BFF08B1012719E0A7
:1035D000002084F80402D4F82002D4F81812281A23
:1035E00088420FD294F803620AE0D4F8180201234B
:1035F000054494F801022A462146FEF771FF761E23
:10360000022EF2D23846BDE8F08110B588B1D0F86C
:10361000001271B191F800225AB1B1F80622B0F847
:103620000402824205D191F80102FEF74DFFC00766
:1036300000D0092010BD00000000000000000102C1
:103640000304060708090000000001020304809A31
:1036500090B68EB78F80D2D3D4D8D7DE8E8F90928B
:1036600092E299E3EAEB59999A9D9C9D9E9FB5D66B
:10367000E0E9A5A5A6A7A8A9AAABAC21AEAFB0B1B9
:10368000B2B3B4B5B6B7B8B9BABBBCBDBEBFC0C1A2
:10369000C2C3C4C5C7C7C8C9CACBCCCDCECFD0D191
:1036A000D2D3D4D5D6D7D8D9DADBDCDDDEDFE0E182
:1036B000E2E3E5E5E6E7E7E9EAEBEDEDEEEFF0F171
:1036C000F2F3F4F5F6F7F8F9FAFBFCFDFEFF00045F
:1036D00000020001800040002000100008000400EB
:1036E00002000000008000400020001000080040A0
:1036F0000020001000080004000200001C37000831
:10370000000000203C000000761E0008583700082A
:103710003C0000209C090000861E000800000000FC
:1037200001000000491E0008611E00085D1E00081F
:10373000711E0008591E0008000000000000000073
:1037400001000000100000000000000000A24A0478
:08375000000000000000000071
:04000005080000ED02
:00000001FF
