:020000040800F2
:100000002804002001010008631200082B110008D9
:1000100061120008DD010008BD15000800000000A5
:100020000000000000000000000000000B150008A8
:10003000DF010008000000008B1200080D15000809
:100040001B0100081B0100081B010008DD1300084C
:100050001B0100081B0100081B0100081B01000810
:100060001B0100081B0100081B0100081B01000800
:100070001B0100081B0100081B0100081B010008F0
:100080001B0100081B0100081B0100081B010008E0
:100090001B0100081B0100081B0100081B010008D0
:1000A0001B0100081B0100081B0100081B010008C0
:1000B0001B0100081B0100081B0100081B010008B0
:1000C0001B0100081B0100081B0100081B010008A0
:1000D0001B0100081B0100081B0100081B01000890
:1000E0001B0100088D1200081B010008DFF80CD06E
:1000F00000F02AF800480047DD1500082804002019
:100100000648804706480047FEE7FEE7FEE7FEE7B1
:10011000FEE7FEE7FEE7FEE7FEE7FEE775150008EF
:10012000ED000008D2B201E000F8012B491EFBD21D
:1001300070470022F6E710B513460A4604461946F2
:10014000FFF7F0FF204610BD064C074D06E0E068C3
:1001500040F0010394E8070098471034AC42F6D30E
:10016000FFF7C8FF301600085016000838B5002405
:100170001922009401218DF803208DF801108DF8CB
:1001800002100A466946084800F0D8FE00948DF82F
:1001900000408DF801408DF8024001226946024876
:1001A00000F02EFF38BD00001000002070B500F0F8
:1001B000BDFF01F02BF8084D4FF4005421462846AE
:1001C00000F0FEF84FF4FA7000F00AF821462846D5
:1001D000BDE8704000F0F4B800100140FEE7704741
:1001E00070B5044600F0F6F80546601C02D00448DD
:1001F0000078044400F0EEF8401BA042FAD370BD32
:10020000000000202DE9F84FDFF890A100220AF14C
:10021000040B144601274FF00F090BF1040E00BF29
:100220000B6807FA04F52B40AB4274D1DFF870C1BC
:100230004E68A6EB0C0866452BD00DDC032E34D09F
:1002400005DC36B3012E19D0022E2FD11BE0112E62
:1002500016D0122E2AD119E0B8F5881F19D006DC65
:10026000B8F5803F15D0B8F5801F1FD111E0B8F563
:10027000001F0ED0B8F5041F18D10AE0CA6815E0B7
:10028000CA68121D12E0CA6808320FE0CA680C3250
:100290000CE08A682AB1012A4FF0080203D04561B8
:1002A00004E0042202E0056100E00022FF2B01D8F7
:1002B000064601E000F104064FEA840501D9A5F1E4
:1002C0002005D6F800C009FA05F82CEA080C02FA55
:1002D00005F54CEA050CC6F800C04D68ED0057D591
:1002E000304DAE6946F00106AE61AD6924F00306FB
:1002F00005F0010500952C4D06EB050CDCF80850C7
:10030000A6074FEA167809FA08F6B543274EB04219
:1003100002D1002610E03BE0254EB04201D101267B
:100320000AE0244EB04201D1022605E0224EB0423E
:1003300001D1032600E0042606FA08F62E43CCF885
:1003400008604D68DAF80060ED03554601D51E439C
:1003500000E09E432E604D68DBF80060AD035D4613
:1003600001D51E4300E09E432E604D68DEF800601C
:10037000ED02754601D51E4300E09E432E604D6898
:10038000AD020E4D2E6801D51E4300E09E432E6047
:10039000641C102CFFF444AFBDE8F88F000401404A
:1003A0000000111000100240000001400008014050
:1003B000000C014000100140001401400C040140F9
:1003C000C2684A40C26070470AB1016170470904BF
:1003D000FBE7000001488068704700000000002033
:1003E0000248816802781144816070470000002053
:1003F000074810B5016841F010010160032000F0CA
:1004000073F8002000F006F800F024F8002010BD7A
:100410000020024070B50D4D04464FF47A712878E3
:10042000B1FBF0F00A490968B1FBF0F000F062FEA0
:1004300048B9102C07D200222146501E00F034F893
:1004400000206C6070BD012070BD00000000002025
:100450000C0000200C4808B5816941F00101816160
:10046000816901F001010091C16941F08051C161D0
:10047000C06900F0805000900448416821F0E061BC
:1004800041F00071416008BD0010024000000140D1
:1004900000F01F02012191404009800000F1E0209E
:1004A000C0F8001170470000F0B40E4B1B680C46FA
:1004B000C3F30223C3F10705042D00D90425191D38
:1004C000072901D2002300E0DB1E012606FA05F110
:1004D000491E214099409E40761E16403143F0BC93
:1004E00000F0C0BE0CED00E0064900F0070208680D
:1004F0004FF6FF03184040EA0220034A1043086009
:10050000704700000CED00E00000FA0501490120F1
:100510000862704700000E420E4A10B5136823F0BF
:1005200002031360136823F00103034313600A4CB2
:10053000206840F004002060012909D040BF00F08D
:10054000A1FE00F09FFE206820F00400206010BD96
:1005500030BFF8E70070004010ED00E010B529A4AE
:1005600001461DCC86B08DE81D002AA02A4C0068EB
:1005700004900020012923D002293AD010291DD14E
:1005800061682268D20119D5C1F38342C9031DF8FD
:10059000020009D5616804AAC1F34041515C1F4AB9
:1005A000B2FBF1F1484301E01D494843616849024B
:1005B00004D440005FF00301B0FBF1F006B010BDC1
:1005C000226AC2F30121012903D1920701D5C80390
:1005D000F4E7022905D1626A920702D549F6404044
:1005E000ECE70329EAD121688903E7D54FF22440DB
:1005F000E4E700F043F96168C1F38131491C490027
:10060000DAE7000002030405060708090A0B0C0DCF
:100610000E0F1010010200000010024000127A00BC
:1006200000093D002DE9F84305460078354CC00728
:1006300054D0E0690026C00008D4E06940F0805042
:10064000E061E069012600F0805000902E480168CA
:10065000C90512D40168804641F480710160FFF73A
:10066000B9FE074605E000BFFFF7B4FEC01B6428D3
:1006700023D8D8F80000C005F6D5206A10F44070E1
:1006800021D0A98801F4407181421CD0206A1F4901
:10069000012220F440700A6000220A602062C00734
:1006A00011D0FFF797FE074641F2883808E000BFF7
:1006B000FFF790FEC11B414502D90320BDE8F88336
:1006C000206A8007F4D5206A696820F440700843E6
:1006D00020621EB1E06920F08050E0612878800738
:1006E00005D56068A96820F4404008436060287818
:1006F000C00605D56068E96820F4800008436060A2
:100700000020DBE70010024000700040400442423D
:100710002DE9F047DFF8548105460E46D8F8000071
:1007200000F00700B0420CD2D8F8001021F0070109
:100730003143C8F80010D8F8000000F00700B042BC
:100740006FD128684A4C810712D5400703D56068ED
:1007500040F4E06060602878000703D5606840F4EA
:10076000605060606068A96820F0F0000843606035
:100770002878C00744D06868012816D0216802286C
:1007800016D0890700294CDA616821F00301014382
:100790006160FFF71FFE6968074641F28830012952
:1007A0000ED00229814618D026E021688903E9E7A6
:1007B0008901E7E7FFF70EFEC11B494501D918E0A3
:1007C00081466068C0F381000128F3D118E000BFC2
:1007D000FFF700FEC11B49450BD86068C0F38100DC
:1007E0000228F5D10CE000BFFFF7F4FDC11B49451D
:1007F00002D90320BDE8F087606810F00C0FF3D138
:10080000D8F80010404601F00701B1420BD9016849
:1008100021F0070131430160006800F00700B04299
:1008200001D00120E6E72878400705D56068E9682F
:1008300020F4E060084360602878000706D560680F
:10084000296920F4605040EAC100606000F026F899
:100850006168084AC1F30311515CC8400649086049
:100860000020FFF7D7FD0020C4E700000020024071
:1008700000100240161600080C000020044805492C
:1008800000684968044AC1F3C221515CC8407047FE
:100890000C000020001002402616000812A185B0AE
:1008A0000FC98DE80F0014A0144A00680490516825
:1008B000134801F00C03042B10D0082B0ED1C1F308
:1008C0008343C9031DF803000AD5516804AAC1F384
:1008D0004041515C0A4A5043B0FBF1F005B070470B
:1008E00008494843FAE7000002030405060708091F
:1008F0000A0B0C0D0E0F1010010200000010024038
:1009000000127A0000093D002DE9F84F04460078F6
:10091000B94DC00748D06868C0F38100012807D0EE
:100920006868C0F38100022809D16868C00306D551
:100930002868800338D5606800286FD034E060688C
:10094000B0F5803F0BD010B1B0F5A02F11D02868C2
:1009500020F480302860286820F4802002E0286895
:1009600040F480302860606888B1FFF733FD0646A8
:1009700009E0286840F480202860F0E7FFF72AFDAE
:10098000801B642875D828688003F7D50CE0FFF732
:1009900021FD064605E000BFFFF71CFD801B642813
:1009A000F0D828688003F7D42078944E80074FF061
:1009B00001094FF000083BD5686810F00C0F07D014
:1009C0006868C0F38100022809D16868C00306D4B2
:1009D0002868800714D5206901281FD110E02069FC
:1009E000B0B1C6F80090FFF7F5FC074605E000BF80
:1009F000FFF7F0FCC01B0228C4D828688007F7D591
:100A00002868616920F0F80040EAC10028600FE022
:100A1000C6F80080FFF7DEFC074606E0E9E000BF0D
:100A2000FFF7D8FCC01B022823D828688007F7D41A
:100A3000207800072CD57248A169D9B1C0F8009080
:100A4000FFF7C8FC074604E0FFF7C4FCC01B022800
:100A50000FD8686A8007F7D56A484FF4FA510068E2
:100A6000B0FBF1F0009000BF0098411E0091FAD257
:100A70000EE080E0C0F80080FFF7ACFC074604E021
:100A8000FFF7A8FCC01B022875D8686A8007F7D456
:100A90002078400760D5E8690027C00008D4E869DD
:100AA00040F08050E861E869012700F08050009034
:100AB00055480168C90513D40168834641F4807123
:100AC0000160FFF787FC824606E000BFFFF782FC6B
:100AD000A0EB0A0064284ED8DBF80000C005F5D56D
:100AE000E06801280AD008B1052813D0286A20F050
:100AF00001002862286A20F0040002E0286A40F021
:100B000001002862E06841F2883B98B1FFF762FC7F
:100B100082460BE0286A40F004002862EEE700BF3E
:100B2000FFF758FCA0EB0A0159455AD8286A8007FC
:100B3000F6D50CE0FFF74EFC824605E0FFF74AFCD5
:100B4000A0EB0A0159454CD8286A8007F6D41FB19A
:100B5000E86920F08050E861E06988B36968C1F312
:100B60008101022945D00228C6F8608004D0FFF731
:100B700031FC044638E034E0FFF72CFC074604E083
:100B8000FFF728FCC01B02282BD828688001F7D467
:100B9000206AB0F5803F05D16868A16820F4003074
:100BA00008436860D4E908010843696821F47411B6
:100BB00008436860C6F86090FFF70CFC044606E046
:100BC00015E000BFFFF706FC001B022809D82868C3
:100BD0008001F7D50BE000BFFFF7FCFB001B0228EC
:100BE00002D90320BDE8F88F28688001F4D40020E2
:100BF000F8E70120F6E70000001002400000424242
:100C0000800442420C000020007000407047704792
:100C100010B5044600680168C90716D04168C907C5
:100C200013D040684007204607D5FFF7F0FF216842
:100C30006FF004004860042002E0FFF7E7FF0120A6
:100C4000607421686FF00100486010BD70470000BB
:100C500010B5044600680168890709D54068800717
:100C600006D52046FFF7F2FF21686FF002004860CA
:100C700003494FF4003008600120607410BD00008B
:100C8000140401402DE9F04791460C465FEA000844
:100C90004AD084B3D8F800004068400744D44046A6
:100CA00000F0A9FB4FF461620546B0FBF2F1B0FB26
:100CB000F2F302FB13503C23B0FBF3F0B5FBF2F66A
:100CC000607002FB1650B0FBF3F203FB1200A07041
:100CD000182931D31820B1FBF0F7B1FBF0F200FB7B
:100CE00012102070404600F07FFB411C04D0A84247
:100CF00002D9461B02E017E04FF0FF36A7EB0710C2
:100D000000EB4000C0EB001005EBC0152946404643
:100D100000F0E7FB40B9701C01D0711900E03146CA
:100D2000404600F0CAFB10B10120BDE8F08739460B
:100D3000404600F0C5FA00E02170B9F1000F0BD079
:100D4000207800F0B2FA2070607800F0AEFA60709F
:100D5000A07800F0AAFAA0700020E6E770B50400C1
:100D600003D0607C002610B105E0012070BD267420
:100D7000204600F043F802206074204600F096F907
:100D8000042578BB204600F0F2FA58BB2068416881
:100D900021F007014160A06820B11748016821F0E7
:100DA000010101601448001F0168A26821F460710C
:100DB000114301606068411C04D10120FFF7CEFBA4
:100DC00080B1401E21688A6822F00F0242EA104278
:100DD0008A602168CA6860F30F02CA60204600F08A
:100DE000E1FA08B16574C0E7E67301206073A0738F
:100DF0006074002070BD0000306C004008B50068D1
:100E0000114988421FD1FFF781FB1048C16941F0A9
:100E10000061C161C0690E4900F0006000900120CE
:100E20000860002211460320FFF73EFB0320FFF776
:100E30002FFB002211462920FFF736FBBDE80840B2
:100E40002920FFF725BB08BD002800400010024004
:100E50003C0442422DE9F8434FF0000617460D4688
:100E6000040000960FD075B1207C01280ED04FF001
:100E7000010984F81090022060740022694620461F
:100E8000FFF700FF20B10120BDE8F8830220FBE757
:100E90009DF800004FF4616148439DF80110C1EBDB
:100EA000011100EB81009DF8021000EB0108287889
:100EB000E7B100F0F1F94FF4616100FB01F76878E8
:100EC00000F0EAF9C0EB001007EB8007A87800F00B
:100ED000E3F93918414501D216480144204600F093
:100EE000ECFA70B1042060742674CCE74FF46161B1
:100EF00048436978C1EB011100EB8100A9780144F6
:100F0000E8E721686FF0020048602068016841F05E
:100F1000020101600848016841F40031016006489F
:100F20000830016841F40031016084F811902674A2
:100F30000020A9E780510100000401402DE9F041A3
:100F40000D4604003BD0C5B3207C01283AD04FF0B9
:100F5000010884F8108002206074E87872B300F011
:100F60009BF9E073687800F097F96073A87800F057
:100F700093F9A073C2B2617BE07B00F073FA207337
:100F80002870204600F037FA4FF46161B0FBF1F1B0
:100F9000002518292DD91822B1FBF2F1A1EB01117E
:100FA00001EB4101C1EB011100EBC11631462046B6
:100FB00000F097FA0427C8B90BE000E004E0012034
:100FC000BDE8F0810220FBE7E07368786073A878E1
:100FD000CFE7204600F008FA411C0AD0B04208D200
:100FE00006490144204600F068FA10B16774257480
:100FF000E5E784F8118025740020E1E780510100C5
:101000002DE9F0410D46040024D01DB3207C0128B9
:1010100023D04FF0010884F81080022060742878F3
:10102000EAB100F039F94FF4616100FB01F668782C
:1010300000F032F9C0EB001006EB8006A87800F053
:101040002BF935182946204600F04BFA00260427D4
:1010500010BB0FE00120BDE8F0810220FBE74FF458
:10106000616148436978C1EB011100EB8100A97807
:101070004518E7E72068416821F0050141602046F6
:1010800000F0B2F9411C0AD0A84208D20649014436
:10109000204600F012FA10B167742674DAE784F87B
:1010A000118026740020D6E78051010070B504003D
:1010B0000AD02068416821F008014160FFF78AF9F1
:1010C00005464FF47A7608E0012070BDFFF782F9FB
:1010D000401BB04201D9032070BD20684068000762
:1010E000F4D5002070BD4FF0E020016941F002010D
:1010F0000161704710B5401EB0F1807F01D301201F
:1011000010BD4FF0E02460610F21601700F0AAF8D5
:101110000020A06107202061002010BD4FF0E020DA
:10112000016921F0020101617047FEE72DE9F04FEE
:1011300085B000243148009401940294039481699D
:1011400041F010018161816901F010010491816910
:1011500041F020018161816901F0200104918169E0
:1011600041F004018161816901F004010491816908
:1011700041F0080181618069012200F00800DFF878
:1011800080905503049029464846FFF71DF9DFF883
:1011900074A04FF41C67002239465046FFF714F93B
:1011A000DFF864B04FF41078002241465846FFF74C
:1011B0000BF90126CDE90056022569464846CDE9DE
:1011C0000245FFF71FF8CDE9007669465046CDE9A4
:1011D0000245FFF717F8CDE90054694658460294D6
:1011E000FFF710F8CDE9008669465846CDE902457B
:1011F000FFF708F805B0BDE8F08F000000100240CE
:101200000010014000080140000C01401CB5002402
:1012100012480194104900940160611EC0E9011454
:10122000FFF79CFD8DF804408DF805408DF80640D1
:10123000012201A90948FFF7E3FE01208DF8000013
:101240008DF801008DF8020002468DF803406946D2
:101250000248FFF773FE1CBD00280040100000206C
:10126000FEE770470907090E002806DA00F00F00B4
:1012700000F1E02080F8141D704700F1E02080F8B4
:101280000014704720BF00BF704770470148FFF748
:10129000DFBC000010000020010901EB810100F01B
:1012A0000F0000EB4100C0B27047002102E00A3895
:1012B000C0B2491C0A28FAD2090740EA11607047F7
:1012C0002DE9F04104460025C07B627BA37B42E010
:1012D000012A16D0032A14D0052A12D0072A10D0CA
:1012E000082A0ED00A2A0CD00C2A0AD0042A10D0C0
:1012F000062A0ED0092A0CD00B2A0AD0022A0DD0B9
:1013000028E01F2B0CD30C2A05D101221346401CC8
:1013100020E01E2B04D30123521C1BE01C2B02D205
:1013200003F1010316E011D183B29E0710D16426A8
:10133000B3FBF6F706FB173636B94FF4C876B3FBA6
:10134000F6F706FB17331BB91D2303E01D2B01D154
:10135000032201236D1C8D42BAD3D1B2E0736173B5
:10136000DAB2A27300F07EF82073BDE8F08170B5A8
:101370000446FFF72FF805464FF47A7606E0FFF7AC
:1013800029F8401BB04201D9032070BD2068406895
:101390008006F4D52068416841F0100141600020CA
:1013A00070BD000070B504460068416821F010016E
:1013B0004160FFF70FF805464FF47A7607E000BF6B
:1013C000FFF708F8401BB04201D9032070BD206828
:1013D00040688006F4D5002070BD00000148FFF78A
:1013E00017BC0000100000200168086A496A89B231
:1013F00041EA00407047006881698AB2C1698BB2D6
:10140000816989B28A4203D0C06961F31F40704785
:1014100043EA0240704700003EB504460122694697
:101420000F48FFF72FFC00200290BDF80000ADF838
:101430000400641EA0B20A22B0FBF2F302FB130305
:10144000B0FBF2F09DF8021003EB001008448DF899
:101450000600012201A90248FFF7FCFC3EBD000086
:1014600010000020F0B56424C1EBC1030927A500DA
:10147000072603EB01130329B3FBF7F100F5FA602C
:10148000114401440AD2401EB0FBF4F201EB90017A
:10149000B0FBF5F0891A0844001D08E0B0FBF4F237
:1014A00001EB9001B0FBF5F0891A0844801CB0FBF9
:1014B000F6F106FB1100C0B2F0BD70B50D46064650
:1014C0000024FFF754FF48B93168280C08623168DE
:1014D000A8B248623046FFF765FF00B101242046FC
:1014E00070BD70B50D4606460024FFF740FF48B9B1
:1014F0003168280C88613168A8B2C8613046FFF7AE
:1015000051FF00B10124204670BD7047FEF768BF4F
:1015100010B594B028216846FEF70BFE14210AA8E6
:10152000FEF707FE00240F940A200090012010947B
:101530001194CDE906041021CDE904011294684606
:10154000FFF7E2F90F20CDE90A049020CDE90C0461
:1015500000210AA80E94FFF7DBF803200F904FF448
:10156000007010904FF4404011900FA8FFF75AF808
:1015700014B010BD0D48016841F0010101604168DF
:101580000B4A1140416001680A4A1140016001683C
:1015900021F480210160416821F4FE0141604FF493
:1015A0001F0181600449C0030860704700100240B9
:1015B0000000FFF8FFFFF6FE08ED00E0FEE702E0A6
:1015C00008C8121F08C1002AFAD1704770470020CE
:1015D00001E001C1121F002AFBD17047FEF708FF8E
:1015E000FFF796FFFFF7A2FDFFF710FEFEF7BEFD27
:1015F000FEF7DCFD00F001F8FAE710B50420FFF774
:101600000BFFFFF78BFD01210020FEF785FFBDE8F2
:101610001040FFF768BD000000000000000001025C
:10162000030406070809000000000102030400008B
:10163000501600080000002010000000BE15000831
:10164000601600081000002018040000CE150008E5
:1016500001000000100000000000000000A24A0489
:04000005080000ED02
:00000001FF
