:020000040800F2
:1000000058050020010100080B19000843170008DB
:1000100009190008450200084D1E000800000000F4
:100020000000000000000000000000009B1B000812
:100030004702000800000000331900089D1B00085B
:100040001B0100081B0100081B010008851A00089D
:100050001B0100081B0100081B0100081B01000810
:100060001B0100081B0100081B0100081B01000800
:100070001B0100081B0100081B0100081B010008F0
:100080001B0100081B0100081B0100081B010008E0
:100090001B0100081B0100081B0100081B010008D0
:1000A0001B0100081B0100081B0100081B010008C0
:1000B0001B0100081B0100081B0100081B010008B0
:1000C0001B0100081B0100081B0100081B010008A0
:1000D0001B0100081B0100081B0100081B01000890
:1000E0001B010008351900081B010008DFF80CD0BF
:1000F00000F02AF8004800476D1E0008580500204F
:100100000648804706480047FEE7FEE7FEE7FEE7B1
:10011000FEE7FEE7FEE7FEE7FEE7FEE7051C000858
:10012000ED000008D2B201E000F8012B491EFBD21D
:1001300070470022F6E710B513460A4604461946F2
:10014000FFF7F0FF204610BD064C074D06E0E068C3
:1001500040F0010394E8070098471034AC42F6D30E
:10016000FFF7C8FF3C1F00085C1F000870B504467D
:1001700000688168C943C9071CD1816821F0010169
:10018000816000F0B7FA05460FE000BF00F0B2FA58
:10019000401B022809D9A06A40F01000A062E06A62
:1001A00040F00100E062012070BD20688068C0431B
:1001B000C007EBD0002070BD38B50A23062211A17C
:1001C000124801F061FA00241922009401218DF8EF
:1001D00003208DF801100D488DF802100A4669467B
:1001E000AC3801F051F800948DF8004007488DF8C4
:1001F00001408DF8024001226946AC3801F0A6F8B2
:1002000038BD000053746172740A00000C010020B4
:1002100070B501F0C5FA01F095FA01F031FB084D17
:100220004FF400542146284600F05AFA4FF4FA7071
:1002300000F066F921462846BDE8704000F050BA4B
:1002400000100140FEE77047002200F001B80000F6
:1002500030B50E4B054601205C7A012C15D8587A32
:1002600000241C54587A03EB800045605D7A03F14A
:1002700008002A54587A421C5A72303008703A20CA
:1002800048702F208870CC70002030BD4C010020B9
:10029000F8B50024009490F824202546012A12D0B5
:1002A000012280F824204A681F23072A0DD20668FD
:1002B000776B521E02EB820293409F430B68934080
:1002C0001F43776319E00220F8BD06680D2A0AD2A1
:1002D000376BD21F02EB820293409F430B6893401F
:1002E0001F43376309E0F76A0D3A02EB820293403D
:1002F0009F430B6893401F43F7620A680723066811
:100300000A2A0AD3F7680A3A02EB420293409F4353
:100310008B6893401F43F76008E0376902EB4202A5
:1003200093409F438B6893401F4337610A68102AAC
:1003300001D0112A20D1124B02689A4217D193683A
:100340001B0219D4936843F40003936009681029D1
:1003500012D10C490C4A0968B1FBF2F101EB8101A1
:10036000490000E0491E00910029FBD104E0816AA8
:1003700041F020018162012480F824502046F8BD1C
:10038000002401402C00002040420F002DE9F041E4
:100390004FF0000704003D467ED0A06A002628B931
:1003A000E66284F82460204600F07EF82046FFF7DD
:1003B000DDFEA16AC90600D420B1A06A40F0100099
:1003C000A06269E0A16A21F4885141F00201A162B2
:1003D0006268E169E3680A4347EA43010A43A168A6
:1003E0004FF48077B94209D0012907D05FF00001AE
:1003F000D4F814C0BCF1010F02D00AE03946F7E787
:10040000F3B1A36A43F02003A362E36A43F001035C
:10041000E3622368D3F804C02CF4694C4CEA010C65
:10042000C3F804C021688B68DFF870C003EA0C03CE
:1004300013438B60A168B9420BD0012909D00CE0AD
:10044000DFF85CC0A3690CEB43330B4343F400615A
:10045000DFE7218A0D05A5F580152168CB6A23F415
:1004600070032B43CB62216889680E4B194091427F
:1004700008D1E662A16A21F0020141F00101A16206
:10048000BDE8F081A06A20F0020040F01000A062F8
:10049000E06A40F00100E0620120F1E7FDF7E1FFD2
:1004A00000E0FFFFFE0E1FFF00B585B000210091A8
:1004B00001910291039100680E49884218D10E48BB
:1004C000816941F400718161816901F400710491D5
:1004D000816941F0040181618069694600F004008E
:1004E00004903020009003200190044800F01AF896
:1004F00005B000BD0024014000100240000801408A
:1005000070B5044600F0F6F80546601C02D00448B9
:100510000078044400F0EEF8401BA042FAD370BD0E
:10052000200000202DE9F84FDFF890A100220AF109
:10053000040B144601274FF00F090BF1040E00BF06
:100540000B6807FA04F52B40AB4274D1DFF870C199
:100550004E68A6EB0C0866452BD00DDC032E34D07C
:1005600005DC36B3012E19D0022E2FD11BE0112E3F
:1005700016D0122E2AD119E0B8F5881F19D006DC42
:10058000B8F5803F15D0B8F5801F1FD111E0B8F540
:10059000001F0ED0B8F5041F18D10AE0CA6815E094
:1005A000CA68121D12E0CA6808320FE0CA680C322D
:1005B0000CE08A682AB1012A4FF0080203D0456195
:1005C00004E0042202E0056100E00022FF2B01D8D4
:1005D000064601E000F104064FEA840501D9A5F1C1
:1005E0002005D6F800C009FA05F82CEA080C02FA32
:1005F00005F54CEA050CC6F800C04D68ED0057D56E
:10060000304DAE6946F00106AE61AD6924F00306D7
:1006100005F0010500952C4D06EB050CDCF80850A3
:10062000A6074FEA167809FA08F6B543274EB042F6
:1006300002D1002610E03BE0254EB04201D1012658
:100640000AE0244EB04201D1022605E0224EB0421B
:1006500001D1032600E0042606FA08F62E43CCF862
:1006600008604D68DAF80060ED03554601D51E4379
:1006700000E09E432E604D68DBF80060AD035D46F0
:1006800001D51E4300E09E432E604D68DEF80060F9
:10069000ED02754601D51E4300E09E432E604D6875
:1006A000AD020E4D2E6801D51E4300E09E432E6024
:1006B000641C102CFFF444AFBDE8F88F0004014027
:1006C000000011100010024000000140000801402D
:1006D000000C014000100140001401400C040140D6
:1006E000C2684A40C26070470AB10161704709049C
:1006F000FBE70000014880687047000020000020F0
:10070000024881680278114481607047200000200F
:10071000074810B5016841F010010160032000F0A6
:1007200073F8002000F006F800F024F8002010BD57
:100730000020024070B50D4D04464FF47A712878C0
:10074000B1FBF0F00A490968B1FBF0F000F0FAFEE5
:1007500048B9102C07D200222146501E00F034F870
:1007600000206C6070BD012070BD000020000020E2
:100770002C0000200C4808B5816941F0010181611D
:10078000816901F001010091C16941F08051C161AD
:10079000C06900F0805000900448416821F0E06199
:1007A00041F00071416008BD0010024000000140AE
:1007B00000F01F02012191404009800000F1E0207B
:1007C000C0F8001170470000F0B40E4B1B680C46D7
:1007D000C3F30223C3F10705042D00D90425191D15
:1007E000072901D2002300E0DB1E012606FA05F1ED
:1007F000491E214099409E40761E16403143F0BC70
:1008000001F084B80CED00E0064900F0070208682A
:100810004FF6FF03184040EA0220034A10430860E5
:10082000704700000CED00E00000FA0501490120CE
:100830000862704700000E420E4A10B5136823F09C
:1008400002031360136823F00103034313600A4C8F
:10085000206840F004002060012909D040BF01F069
:1008600065F801F063F8206820F00400206010BDF6
:1008700030BFF8E70070004010ED00E010B529A48B
:1008800001461DCC86B08DE81D002AA02A4C0068C8
:1008900004900020012923D002293AD010291DD12B
:1008A00061682268D20119D5C1F38342C9031DF8DA
:1008B000020009D5616804AAC1F34041515C1F4A96
:1008C000B2FBF1F1484301E01D4948436168490228
:1008D00004D440005FF00301B0FBF1F006B010BD9E
:1008E000226AC2F30121012903D1920701D5C8036D
:1008F000F4E7022905D1626A920702D549F6404021
:10090000ECE70329EAD121688903E7D54FF22440B7
:10091000E4E700F053F96168C1F38131491C4900F3
:10092000DAE7000002030405060708090A0B0C0DAC
:100930000E0F1010010200000010024000127A0099
:1009400000093D002DE9F84305460078354CC00705
:1009500054D0E0690026C00008D4E06940F080501F
:10096000E061E069012600F0805000902E480168A7
:10097000C90512D40168804641F480710160FFF717
:10098000B9FE074605E000BFFFF7B4FEC01B6428B0
:1009900023D8D8F80000C005F6D5206A10F44070BE
:1009A00021D0A98801F4407181421CD0206A1F49DE
:1009B000012220F440700A6000220A602062C00711
:1009C00011D0FFF797FE074641F2883808E000BFD4
:1009D000FFF790FEC11B414502D90320BDE8F88313
:1009E000206A8007F4D5206A696820F440700843C3
:1009F00020621EB1E06920F08050E0612878800715
:100A000005D56068A96820F44040084360602878F4
:100A1000C00605D56068E96820F48000084360607E
:100A20000020DBE70010024000700040400442421A
:100A30002DE9F047DFF8548105460E46D8F800004E
:100A400000F00700B0420CD2D8F8001021F00701E6
:100A50003143C8F80010D8F8000000F00700B04299
:100A60006FD128684A4C810712D5400703D56068CA
:100A700040F4E06060602878000703D5606840F4C7
:100A8000605060606068A96820F0F0000843606012
:100A90002878C00744D06868012816D02168022849
:100AA00016D0890700294CDA616821F0030101435F
:100AB0006160FFF71FFE6968074641F2883001292F
:100AC0000ED00229814618D026E021688903E9E783
:100AD0008901E7E7FFF70EFEC11B494501D918E080
:100AE00081466068C0F381000128F3D118E000BF9F
:100AF000FFF700FEC11B49450BD86068C0F38100B9
:100B00000228F5D10CE000BFFFF7F4FDC11B4945F9
:100B100002D90320BDE8F087606810F00C0FF3D114
:100B2000D8F80010404601F00701B1420BD9016826
:100B300021F0070131430160006800F00700B04276
:100B400001D00120E6E72878400705D56068E9680C
:100B500020F4E060084360602878000706D56068EC
:100B6000296920F4605040EAC100606000F036F866
:100B70006168084AC1F30311515CC8400649086026
:100B80000020FFF7D7FD0020C4E70000002002404E
:100B900000100240241F00082C00002004480549D2
:100BA00000684968044AC1F30221515CC84070479B
:100BB0002C00002000100240341F000804480549A2
:100BC00000684968044AC1F3C221515CC8407047BB
:100BD0002C00002000100240341F000812A185B034
:100BE0000FC98DE80F0014A0144A006804905168E2
:100BF000134801F00C03042B10D0082B0ED1C1F3C5
:100C00008343C9031DF803000AD5516804AAC1F340
:100C10004041515C0A4A5043B0FBF1F005B07047C7
:100C200008494843FAE700000203040506070809DB
:100C30000A0B0C0D0E0F10100102000000100240F4
:100C400000127A0000093D002DE9F84F04460078B3
:100C5000B94DC00748D06868C0F38100012807D0AB
:100C60006868C0F38100022809D16868C00306D50E
:100C70002868800338D5606800286FD034E0606849
:100C8000B0F5803F0BD010B1B0F5A02F11D028687F
:100C900020F480302860286820F4802002E0286852
:100CA00040F480302860606888B1FFF723FD064675
:100CB00009E0286840F480202860F0E7FFF71AFD7B
:100CC000801B642875D828688003F7D50CE0FFF7EF
:100CD00011FD064605E000BFFFF70CFD801B6428F0
:100CE000F0D828688003F7D42078944E80074FF01E
:100CF00001094FF000083BD5686810F00C0F07D0D1
:100D00006868C0F38100022809D16868C00306D46E
:100D10002868800714D5206901281FD110E02069B8
:100D2000B0B1C6F80090FFF7E5FC074605E000BF4C
:100D3000FFF7E0FCC01B0228C4D828688007F7D55D
:100D40002868616920F0F80040EAC10028600FE0DF
:100D5000C6F80080FFF7CEFC074606E0E9E000BFDA
:100D6000FFF7C8FCC01B022823D828688007F7D4E7
:100D7000207800072CD57248A169D9B1C0F800903D
:100D8000FFF7B8FC074604E0FFF7B4FCC01B0228DD
:100D90000FD8686A8007F7D56A484FF4FA5100689F
:100DA000B0FBF1F0009000BF0098411E0091FAD214
:100DB0000EE080E0C0F80080FFF79CFC074604E0EE
:100DC000FFF798FCC01B022875D8686A8007F7D423
:100DD0002078400760D5E8690027C00008D4E8699A
:100DE00040F08050E861E869012700F080500090F1
:100DF00055480168C90513D40168834641F48071E0
:100E00000160FFF777FC824606E000BFFFF772FC47
:100E1000A0EB0A0064284ED8DBF80000C005F5D529
:100E2000E06801280AD008B1052813D0286A20F00C
:100E300001002862286A20F0040002E0286A40F0DD
:100E400001002862E06841F2883B98B1FFF752FC4C
:100E500082460BE0286A40F004002862EEE700BFFB
:100E6000FFF748FCA0EB0A0159455AD8286A8007C9
:100E7000F6D50CE0FFF73EFC824605E0FFF73AFCB2
:100E8000A0EB0A0159454CD8286A8007F6D41FB157
:100E9000E86920F08050E861E06988B36968C1F3CF
:100EA0008101022945D00228C6F8608004D0FFF7EE
:100EB00021FC044638E034E0FFF71CFC074604E060
:100EC000FFF718FCC01B02282BD828688001F7D434
:100ED000206AB0F5803F05D16868A16820F4003031
:100EE00008436860D4E908010843696821F4741173
:100EF00008436860C6F86090FFF7FCFB044606E014
:100F000015E000BFFFF7F6FB001B022809D8286890
:100F10008001F7D50BE000BFFFF7ECFB001B0228B8
:100F200002D90320BDE8F88F28688001F4D400209E
:100F3000F8E70120F6E700000010024000004242FE
:100F4000800442422C00002000700040704770472F
:100F500010B5044600680168C90716D04168C90782
:100F600013D040684007204607D5FFF7F0FF2168FF
:100F70006FF004004860042002E0FFF7E7FF012063
:100F8000607421686FF00100486010BD4FF400519B
:100F90000148FFF7A5BB00000010014010B5044652
:100FA00000680168890709D54068800706D5204692
:100FB000FFF7ECFF21686FF00200486003494FF42F
:100FC000003008600120607410BD0000140401406E
:100FD0002DE9F04791460C465FEA00084AD084B3F9
:100FE000D8F800004068400744D4404600F057FD60
:100FF0004FF461620546B0FBF2F1B0FBF2F302FB85
:1010000013503C23B0FBF3F0B5FBF2F6607002FB2B
:101010001650B0FBF3F203FB1200A070182931D375
:101020001820B1FBF0F7B1FBF0F200FB12102070BA
:10103000404600F02DFD411C04D0A84202D9461BB9
:1010400002E017E04FF0FF36A7EB071000EB40007F
:10105000C0EB001005EBC0152946404600F089FDA5
:1010600040B9701C01D0711900E03146404600F0D3
:101070006CFD10B10120BDE8F0873946404600F014
:1010800073FC00E02170B9F1000F0BD0207800F064
:1010900060FC2070607800F05CFC6070A07800F06C
:1010A00058FCA0700020E6E770B5040003D0607C17
:1010B000002610B105E0012070BD2674204600F026
:1010C00043F802206074204600F096F9042578BBAE
:1010D000204600F0A0FC58BB2068416821F00701C1
:1010E0004160A06820B11748016821F0010101604A
:1010F0001448001F0168A26821F460711143016067
:101100006068411C04D10120FFF7B8FB80B1401E8C
:1011100021688A6822F00F0242EA10428A60216840
:10112000CA6860F30F02CA60204600F08FFC08B165
:101130006574C0E7E67301206073A07360740020DB
:1011400070BD0000306C004008B50068114988424D
:101150001FD1FFF76BFB1048C16941F00061C1610D
:10116000C0690E4900F00060009001200860002274
:1011700011460320FFF728FB0320FFF719FB00228D
:1011800011462920FFF720FBBDE808402920FFF782
:101190000FBB08BD00280040001002403C04424242
:1011A0002DE9F8434FF0000617460D46040000965F
:1011B0000FD075B1207C01280ED04FF0010984F8C2
:1011C000109002206074002269462046FFF700FF5D
:1011D00020B10120BDE8F8830220FBE79DF8000064
:1011E0004FF4616148439DF80110C1EB011100EB20
:1011F00081009DF8021000EB01082878E7B100F0AB
:101200009FFB4FF4616100FB01F7687800F098FBE9
:10121000C0EB001007EB8007A87800F091FB3918AD
:10122000414501D216480144204600F08EFC70B1C1
:10123000042060742674CCE74FF4616148436978F8
:10124000C1EB011100EB8100A9780144E8E72168B6
:101250006FF0020048602068016841F002010160FF
:101260000848016841F4003101600648083001680F
:1012700041F40031016084F8119026740020A9E740
:1012800080510100000401402DE9F0410D460400A9
:101290003BD0C5B3207C01283AD04FF0010884F838
:1012A000108002206074E87872B300F049FBE073AC
:1012B000687800F045FB6073A87800F041FBA073EC
:1012C000C2B2617BE07B00F015FC207328702046E1
:1012D00000F0E5FB4FF46161B0FBF1F10025182946
:1012E0002DD91822B1FBF2F1A1EB011101EB410163
:1012F000C1EB011100EBC1163146204600F039FC6C
:101300000427C8B90BE000E004E00120BDE8F0814B
:101310000220FBE7E07368786073A878CFE7204687
:1013200000F0B6FB411C0AD0B04208D20649014485
:10133000204600F00AFC10B167742574E5E784F8D4
:10134000118025740020E1E7805101002DE9F04172
:101350000D46040024D01DB3207C012823D04FF07B
:10136000010884F81080022060742878EAB100F047
:10137000E7FA4FF4616100FB01F6687800F0E0FAEB
:10138000C0EB001006EB8006A87800F0D9FA3518FB
:101390002946204600F0EDFB0026042710BB0FE095
:1013A0000120BDE8F0810220FBE74FF46161484372
:1013B0006978C1EB011100EB8100A9784518E7E7D6
:1013C0002068416821F005014160204600F060FB83
:1013D000411C0AD0A84208D206490144204600F028
:1013E000B4FB10B167742674DAE784F811802674B0
:1013F0000020D6E78051010070B504000AD02068B3
:10140000416821F008014160FFF774F905464FF487
:101410007A7608E0012070BDFFF76CF9401BB042FE
:1014200001D9032070BD206840680007F4D5002072
:1014300070BD4FF0E020016941F002010161704789
:1014400070B5040005D00025A56294F8510010B1D4
:1014500004E0012070BD204600F034F8022084F83A
:1014600051002068016821F040010160D4E90101C8
:101470000843D4E903121143084361690843218BEF
:1014800001F400710843E1690843216A0843A16A35
:10149000084321680860A069042101EA1040616ADC
:1014A0000843216848602168E06A08612068C169D2
:1014B00021F40061C1616565012084F851000020BC
:1014C00070BD000030B585B00024009401940294F2
:1014D00003940068174988422AD11748816941F46A
:1014E00080518161816901F480510491816941F0E9
:1014F000080181618069114D00F0080004902820E6
:101500000090022001900320039069462846FFF7CF
:1015100009F81020CDE90004694628460294FFF737
:1015200001F80748416841F0E06141F00101416084
:1015300005B030BD0030014000100240000C0140F9
:101540000000014010B5401EB0F1807F01D30120A2
:1015500010BD4FF0E02460610F21601700F0D6F954
:101560000020A06107202061002010BD4FF0E02086
:10157000016921F002010161704770B5040004D0D7
:1015800094F83900002510B106E0012070BD84F800
:101590003850204600F022F8242084F839002068D2
:1015A000C16821F40051C160204600F04FFB206863
:1015B000016921F4904101612068416921F02A010B
:1015C00041612068C16841F40051C160E563202099
:1015D00084F8390084F83A00002070BD70B586B0F8
:1015E00000240094019402940394234E0368234939
:1015F00002200322224DB34219D18B6943F4804368
:101600008B618B6903F4804304938B6943F004037B
:101610008B618969039201F0040104910102CDE913
:10162000001069462846FEF77DFF28151BE0154E81
:10163000B3421FD1CB6943F40033CB61CB6903F4D0
:10164000003304938B6943F004038B61896903922F
:1016500001F0040104910421CDE9001069462846F7
:10166000FEF760FF0820CDE9000469462846029491
:10167000FEF758FF06B070BD003801400010024070
:1016800000080140004400402DE9F843044690F86A
:1016900039001F4616460D46202850D1A5B19EB1EF
:1016A00094F8380001284AD0012084F838004FF01F
:1016B0000008C4F83C80212084F83900FFF71AF8AC
:1016C000A6848146E68426E00120BDE8F883E08C0C
:1016D000401EE084A0684B46B0F5805F4FF00002EA
:1016E0004FF080012046009703D000F067FBE8B977
:1016F0000DE000F063FBC8B928882168C0F308003A
:101700004860206908B16D1C05E0AD1C03E021684C
:1017100015F8010B4860E08C0028D8D14B46002218
:1017200040212046009700F049FB08B10320CCE798
:10173000202084F8390084F838800020C5E7022092
:10174000C3E7FEE73EB500240D48009401940294DF
:101750008460C460094944610160012505614FF45A
:1017600060214460C161FEF711FE0420CDE900054F
:10177000694602940248FEF78BFD3EBD00240140FD
:101780003000002010B504490448FEF75DFD024911
:10179000491E087010BD0000190000200400002040
:1017A0002DE9F04F85B00024314800940194029453
:1017B0000394816941F010018161816901F0100198
:1017C0000491816941F020018161816901F020016A
:1017D0000491816941F004018161816901F0040192
:1017E0000491816941F0080181618069012200F062
:1017F0000800DFF880905503049029464846FEF71C
:1018000073FFDFF874A04FF41C670022394650467E
:10181000FEF76AFFDFF864B04FF41078002241460B
:101820005846FEF761FF0126CDE9005602256946BC
:101830004846CDE90245FEF775FECDE900766946DA
:101840005046CDE90245FEF76DFECDE900546946EC
:1018500058460294FEF766FECDE900866946584672
:10186000CDE90245FEF75EFE05B0BDE8F08F000051
:10187000001002400010014000080140000C01402F
:101880001CB5002412480194104900940160611EA7
:10189000C0E90114FFF708FC8DF804408DF80540FD
:1018A0008DF80640012201A90948FFF74FFD0120EC
:1018B0008DF800008DF801008DF8020002468DF8C9
:1018C000034069460248FFF7DFFC1CBD00280040CA
:1018D000600000200B480A494FF4007201604FF489
:1018E0008271416000218160C1600161C0E905121F
:1018F000C1610162416281620A21C162FFF7A0BD3C
:101900000030014074000020FEE770470907090E0F
:10191000002806DA00F00F0000F1E02080F8141D26
:10192000704700F1E02080F80014704720BF00BF2E
:10193000704770470148FFF731BB0000600000208E
:10194000010901EB810100F00F0000EB4100C0B282
:101950007047002102E00A38C0B2491C0A28FAD2B6
:10196000090740EA116070472DE9F041044600255F
:10197000C07B627BA37B42E0012A16D0032A14D0ED
:10198000052A12D0072A10D0082A0ED00A2A0CD015
:101990000C2A0AD0042A10D0062A0ED0092A0CD00C
:1019A0000B2A0AD0022A0DD028E01F2B0CD30C2AB8
:1019B00005D101221346401C20E01E2B04D3012335
:1019C000521C1BE01C2B02D203F1010316E011D1C3
:1019D00083B29E0710D16426B3FBF6F706FB1736D9
:1019E00036B94FF4C876B3FBF6F706FB17331BB9CD
:1019F0001D2303E01D2B01D1032201236D1C8D4209
:101A0000BAD3D1B2E0736173DAB2A27300F072F8A4
:101A10002073BDE8F08170B50446FEF76BFE054605
:101A20004FF47A7606E0FEF765FE401BB04201D91E
:101A3000032070BD206840688006F4D520684168A6
:101A400041F010014160002070BD000070B50446F7
:101A50000068416821F010014160FEF74BFE054629
:101A60004FF47A7607E000BFFEF744FE401BB04219
:101A700001D9032070BD206840688006F4D500209D
:101A800070BD00000148FFF763BA0000600000204D
:101A90000168086A496A89B241EA004070470068F3
:101AA00081698AB2C1698BB2816989B28A4203D0E5
:101AB000C06961F31F40704743EA0240704700006D
:101AC0000EB5012269460A48FFF782FA002002900B
:101AD000BDF80000ADF804009DF802000122801C52
:101AE0008DF8060001A90248FFF75AFB0EBD000061
:101AF00060000020F0B56424C1EBC1030927A500F4
:101B0000072603EB01130329B3FBF7F100F5FA6095
:101B1000114401440AD2401EB0FBF4F201EB9001E3
:101B2000B0FBF5F0891A0844001D08E0B0FBF4F2A0
:101B300001EB9001B0FBF5F0891A0844801CB0FB62
:101B4000F6F106FB1100C0B2F0BD70B50D460646B9
:101B50000024FFF760FF48B93168280C086231683B
:101B6000A8B248623046FFF771FF00B10124204659
:101B700070BD70B50D4606460024FFF74CFF48B90E
:101B80003168280C88613168A8B2C8613046FFF717
:101B90005DFF00B10124204670BD7047FEF7B0BD67
:101BA00010B594B028216846FEF7C3FA14210AA89C
:101BB000FEF7BFFA00240F940A2000900120109431
:101BC0001194CDE906041021CDE904011294684670
:101BD000FFF73AF80F20CDE90A049020CDE90C0474
:101BE00000210AA80E94FEF723FF03200F904FF464
:101BF000007010904FF4404011900FA8FEF7A2FE25
:101C000014B010BD0D48016841F001010160416848
:101C10000B4A1140416001680A4A114001600168A5
:101C200021F480210160416821F4FE0141604FF4FC
:101C30001F0181600449C003086070470010024022
:101C40000000FFF8FFFFF6FE08ED00E02DE9F0418F
:101C5000044600680169E26821F4405111430161C2
:101C60002169A0680843616908432168CA6841F294
:101C70000C639A430243CA6020684169A26921F457
:101C80004071114341614C492068642532268842E5
:101C90003CD1FEF793FF00EBC00101EB001061683F
:101CA0008900B0FBF1F7FEF789FF00EBC00101EB03
:101CB00000106168B0468900B0FBF1F0B0FBF5F0B0
:101CC0006FF01801484307EB800106EB0110B0FBF1
:101CD000F5F000F0F006FEF771FF00EBC00101EB3C
:101CE000001061688900B0FBF1F0B0FBF5F006EB85
:101CF0000016FEF763FF00EBC00101EB0010616806
:101D00008900B0FBF1F7FEF759FF3BE0FEF746FF15
:101D100000EBC00101EB001061688900B0FBF1F736
:101D2000FEF73CFF00EBC00101EB00106168B0461C
:101D30008900B0FBF1F0B0FBF5F06FF018014843FB
:101D400007EB800106EB0110B0FBF5F000F0F006A8
:101D5000FEF724FF00EBC00101EB00106168890071
:101D6000B0FBF1F0B0FBF5F006EB0016FEF716FF46
:101D700000EBC00101EB001061688900B0FBF1F7D6
:101D8000FEF70CFF00EBC00101EB00106168890059
:101D9000B0FBF1F0B0FBF5F06FF01801484307EB32
:101DA000800108EB0110B0FBF5F0216800F00F0096
:101DB00030448860BDE8F081003801402DE9F041F1
:101DC000984617460E460446069D1DE0681C1BD02B
:101DD0002DB1FEF78FFCA0EB0800A84214D92068B3
:101DE000C16821F4D071C1602068416921F001010E
:101DF0004161202084F8390084F83A00002084F8FA
:101E000038000320BDE8F0812068006836EA000051
:101E100004D00020B842D9D00020F3E70120F9E730
:101E20000248012101700078704700000000002086
:101E3000012070470020704702480121017000789E
:101E4000704700000000002000207047FEE702E01D
:101E500008C8121F08C1002AFAD170477047002035
:101E600001E001C1121F002AFBD17047FEF750FCB0
:101E7000FFF796FEFFF794FCFFF764FCFFF700FD09
:101E8000184817494FF4E13500240160C0E90154B6
:101E90000C26C460C0E904468461C461FFF76DFB91
:101EA0001048114940300160C0E90154C460C0E9E4
:101EB00004468461C461FFF760FBFFF70BFDFFF789
:101EC00061FCFEF779F907480A23072207A1403091
:101ED000FFF7DAFBFEF79CF900F016F8FAE70000CE
:101EE00000380140CC0000200044004057616B6581
:101EF0005570204265666F7265205768696C652071
:101F00004C6F6F700A00000010B50220FFF7D8FD7B
:101F1000FFF72CFB01210020FEF78EFCBDE81040EE
:101F2000FFF787BA00000000000000000102030470
:101F30000607080900000000010203045C1F0008F6
:101F400000000020300000004E1E00088C1F00081A
:101F500030000020280500005E1E0008010000007F
:101F6000211E0008391E0008351E0008491E000801
:101F7000311E000800000000000000000100000009
:0C1F8000100000000000000000A24A0455
:04000005080000ED02
:00000001FF
